:020000040800F2
:10000000200C002001010008950800081F080008C6
:100010009108000871060008010E000800000000A9
:10002000000000000000000000000000D50A0008E9
:10003000C906000800000000A5090008150C00080A
:100040001B0100081B0100081B0100081B01000820
:100050001B0100081B0100081B0100081B01000810
:100060001B0100081B0100081B0100081B01000800
:100070001B0100081B0100081B0100081B010008F0
:100080001B0100081B0100081B0100081B010008E0
:100090001B0100081B0100081B0100081B010008D0
:1000A0001B0100081B0100081B0100081B010008C0
:1000B0001B0100081B0100081B0100081B010008B0
:1000C0001B0100081B0100081B0100081B010008A0
:1000D0001B0100081B0100081B0100081B01000890
:1000E0001B0100081B0100081B010008DFF80CD0F1
:1000F00000F01EF900480047B5100008200C002051
:100100000648804706480047FEE7FEE7FEE7FEE7B1
:10011000FEE7FEE7FEE7FEE7FEE7FEE7190C000854
:10012000ED0000082DE9FE4F81EA030404F00044CD
:1001300021F0004100944FF0000B23F0004350EAFF
:1001400001045ED052EA03045BD0C3F30A54C1F346
:100150000A552C44A4F2F3340194A0FB0254C1F3D9
:10016000130141F48011C3F3130343F4801301FB23
:10017000024400FB034E840A970A44EA815447EA8A
:100180008357A4FB076802958D0A05FB07854FEA94
:10019000932C04FB0C542705029D4FEA065847EAAE
:1001A0001637B5EB08056EEB070C870E920E47EA83
:1001B000811742EA8312A7FB0201B6EB0B0164EB45
:1001C00000042B0D43EA0C335E1844EB1C50DA4656
:1001D0005146E7FB0201C5F313044FEA0B3343EA30
:1001E00014534FEA0432019C43EA0603A4F10C04C1
:1001F0000294009CCDE900B400F04BF803B0BDE8D8
:10020000F08F00200146F9E70EB540F2334102912C
:100210000021CDE900110A460B4600F03AF803B080
:1002200000BDC1F30A5210B5C1F3130140F2FF3310
:1002300041F480119A4201DA002010BD40F23343AC
:100240009A42A2F2334203DC524200F003F810BD9E
:10025000904010BD202A04DB203A21FA02F0002150
:10026000704721FA02F3D040C2F1200291400843C6
:100270001946704710B5141E73F1000408DA401CCB
:1002800041F1000192185B411A4301D120F00100B5
:1002900010BD2DE9F04D92469B4611B1B1FA81F2A5
:1002A00002E0B0FA80F22032904600F053F80446A3
:1002B0000F4640EA0A0041EA0B0153465A460843FA
:1002C00013D0114653EA010019D0C8F1400250463C
:1002D000FFF7C0FF05460E4650465946424600F01D
:1002E00039F8084305D0012004E020463946BDE82E
:1002F000F08D0020054346EAE0762C4337430A9808
:100300006305E40AA0EB08000022FD0A44EA475412
:100310000A3002D500200146E9E7010510196941BC
:10032000DDE9084500196941BDE8F04DA2E700008C
:10033000064C074D06E0E06840F0010394E8070032
:1003400098471034AC42F6D3FFF7D4FE04110008EE
:1003500024110008202A04DB203A00FA02F10020D0
:1003600070479140C2F1200320FA03F319439040F3
:10037000704770B58C1810F8015B15F0070301D1B8
:1003800010F8013B2A1106D110F8012B03E010F8F8
:10039000016B01F8016B5B1EF9D12B0705D400231B
:1003A000521E0DD401F8013BFAE710F8013BCB1ABD
:1003B000921C03E013F8015B01F8015B521EF9D5B2
:1003C000A142D8D3002070BD21B1826842F0010261
:1003D000826003E0826822F001028260704721B1EE
:1003E000826842F48072826003E0826822F4807244
:1003F00082607047014600208A6802F004020AB158
:10040000012000E00020704730B5024600200023A4
:1004100050680F4C20400D790C6844EA05242043B5
:10042000506090680B4C2040D1E902542C434D7928
:1004300044EA450420439060D06A20F470000C7CAC
:10044000641EE4B2234340EA0350D06230BD000092
:10045000FFFEF0FFFDF7F1FFF0B504460D4600206A
:100460000021092D11DDE068A5F10A0606EB46071B
:10047000072606FA07F18843A5F10A0606EB4606A9
:1004800003FA06F10843E0600CE0206905EB45073C
:10049000072606FA07F1884305EB450603FA06F13D
:1004A00008432061072A0FDA606B561E06EB8607A9
:1004B0001F2606FA07F18843561E06EB860605FA44
:1004C00006F10843606322E00D2A0FDA206BD61F85
:1004D00006EB86071F2606FA07F18843D61F06EBB0
:1004E000860605FA06F10843206310E0E06AA2F1EF
:1004F0000D0606EB86071F2606FA07F18843A2F1D0
:100500000D0606EB860605FA06F10843E062F0BD2B
:1005100021B1826842F4A002826003E0826822F482
:10052000A00282607047816841F0040181607047D9
:1005300000B585B00121480200F052FA0020009079
:1005400001208DF80500002003904FF460200290F8
:1005500007208DF8100000208DF80400694612482D
:10056000FFF752FF4FF4004000F01EFA042301226F
:1005700007210D48FFF770FF01210B48FFF724FF0B
:100580000948FFF7D0FF00BF0748FFF733FF0028F7
:10059000FAD001210448FFF722FF01210248FFF7AA
:1005A000B7FF05B000BD00000024014000B58BB0CE
:1005B0000121084600F004FA0F4800900F4801900E
:1005C00000200290012003900020049005904FF439
:1005D000807006908000079020200890000209900B
:1005E00000200A906946064800F050F801210448AE
:1005F00000F040F80BB000BD4C2401401C0400206A
:100600000800024008B50121042000F0E9F980202B
:10061000ADF8000000208DF803006946014800F0A5
:1006200073F808BD0008014010B5FFF7EBFFFFF7B6
:10063000BDFFFFF77DFF10BD0146C21700EB5272F0
:10064000D210C2F10702094B1A70C21700EB5272A6
:10065000D210A0EBC202C2F107025A7019464A78C2
:10066000012191401A469170704700001504002046
:1006700000BFFEE721B1026842F00102026004E01F
:1006800002684FF6FE731A400260704710B50022F0
:10069000026847F6F0739A430C6A8B6823430C692F
:1006A00023434C6923438C692343CC6923434C6A1D
:1006B00023438C6A23431A430260CB6843600B6870
:1006C00083604B68C36010BD7047000070B504467E
:1006D0000C4800F075FA002508E000BF4FF0E0205C
:1006E000006900F480300028F8D06D1CA542F4D3D6
:1006F0004FF0E020006920F001004FF0E021086198
:1007000070BD0000401901002DE9F04102460025AE
:100710000026002000230024002791F803C00CF0DD
:100720000F0591F803C00CF0100CBCF1000F03D0C2
:1007300091F802C04CEA050591F800C0BCF1000F29
:1007400031D0146800202BE04FF0010C0CFA00F3BC
:10075000B1F800C00CEA03069E4220D183004FF09E
:100760000F0C0CFA03F7BC4305FA03FC4CEA040433
:1007700091F803C0BCF1280F06D14FF0010C0CFA20
:1007800000FCC2F814C00AE091F803C0BCF1480FA5
:1007900005D14FF0010C0CFA00FCC2F810C0401C4F
:1007A0000828D1D31460B1F800C0BCF1FF0F34DDCC
:1007B000546800202EE000F1080C4FF0010808FA00
:1007C0000CF3B1F800C00CEA03069E4221D183006D
:1007D0004FF00F0C0CFA03F7BC4305FA03FC4CEA8C
:1007E000040491F803C0BCF1280F05D100F1080CF6
:1007F00008FA0CF8C2F8148091F803C0BCF1480F55
:1008000007D100F1080C4FF0010808FA0CF8C2F803
:100810001080401C0828CED35460BDE8F08100BF92
:10082000FEE770B505460C4600F0FEFB782000F0B0
:10083000D1FB00F021FC00B110E0284600F0CAFB1B
:1008400000F01AFC00B109E0204600F0C3FB00F004
:1008500013FC00B102E000F0FFFB00BF00F0FCFB66
:1008600070BD000008B50121082000F0B9F84FF470
:100870008050ADF8000010208DF8030003208DF8A3
:10088000020069460148FFF73FFF08BD000C014028
:1008900000BFFEE77047000070B500240CE00025A3
:1008A00006E00020074901EBC4114855681CC5B299
:1008B000802DF6DB601CC4B2082CF0DB00F0B0FA2F
:1008C00070BD00002004002010B500F069FB4FF45B
:1008D0007A70FFF7FBFEAE2000F094FA202000F0C3
:1008E00091FA102000F08EFAB02000F08BFAC820A8
:1008F00000F088FA002000F085FA102000F082FA5B
:10090000402000F07FFA812000F07CFAFF2000F008
:1009100079FAA12000F076FAA62000F073FAA82058
:1009200000F070FA3F2000F06DFAA42000F06AFA9F
:10093000D32000F067FA002000F064FAD52000F020
:1009400061FAF02000F05EFAD92000F05BFA222074
:1009500000F058FADA2000F055FA122000F052FAAE
:10096000DB2000F04FFA202000F04CFA8D2000F040
:1009700049FA142000F046FAAF2000F043FA10BD07
:1009800070B505460C4605F1B001C8B200F03AFA60
:1009900004F00F0000F036FA102141EA141000F0C4
:1009A00031FA70BD7047000001460020034A5068CC
:1009B00020F440400843506070470000001002409F
:1009C00029B1064A52690243044B5A6104E0034AC2
:1009D00052698243014B5A61704700000010024087
:1009E00029B1064A92690243044B9A6104E0034A22
:1009F00092698243014B9A617047000000100240E7
:100A000030B500210022002400232D4D6D6805F033
:100A10000C0121B1042905D0082923D105E0294D75
:100A2000056022E0274D05601FE0254D6D6805F447
:100A30007012234D6D6805F48034022505EB924257
:100A40001CB9214D554305600BE01D4D6D6805F443
:100A500000351DB11C4D5543056002E0194D55434D
:100A6000056002E0174D056000BF00BF144D6D68C2
:100A700005F0F0010909154D6B5C0568DD40456026
:100A80000F4D6D6805F4E061090A104D6B5C456817
:100A9000DD4085600A4D6D6805F46051C90A0B4D53
:100AA0006B5C4568DD40C560054D6D6805F44041EF
:100AB000890B074D6B5CC568B5FBF3F5056130BD6F
:100AC0000010024000127A0000093D0000000020E2
:100AD00010000020704710B500F002F810BD0000B3
:100AE0000CB50020019000903348006840F480303D
:100AF0003149086000BF3048006800F400300090C1
:100B00000198401C0190009818B90198B0F5A06FA9
:100B1000F1D12948006800F4003010B101200090A4
:100B200001E0002000900098012843D1234800688C
:100B300040F01000214908600846006820F00300DA
:100B400008600846006840F0020008601A484068E3
:100B5000194948600846406848600846406840F4C3
:100B6000806048600846406820F47C104860084671
:100B7000406840F4E81048600846006840F0807023
:100B8000086000BF0C48006800F000700028F9D031
:100B90000948406820F0030007494860084640685B
:100BA00040F00200486000BF0348406800F00C00BD
:100BB0000828F9D10CBD00000010024000200240BE
:100BC00030B50146B1F1807F01D3012030BD21F065
:100BD0007F40401E4FF0E022506150170F22002846
:100BE00007DA13071D0E094B00F00F04241F1D55D3
:100BF00003E013071C0E064B1C5400BF00204FF0EF
:100C0000E0229061072010610020DFE718ED00E08E
:100C100000E400E07047000010B51348006840F0A1
:100C200001001149086008464068104908400E4913
:100C30004860084600680E4908400B4908600846AD
:100C4000006820F4802008600846406820F4FE0018
:100C500048604FF41F008860FFF73DFF4FF00060D1
:100C60000449086010BD0000001002400000FFF8B9
:100C7000FFFFF6FE08ED00E021B1828942F4005248
:100C8000828104E082894DF6FF731A4082817047A9
:100C90002DE9F04786B005460E460024A24600BF67
:100CA000A1460027B08900B100BF2F462C8A4CF620
:100CB000FF700440F08804432C82AC894EF6F31098
:100CC0000440B08831890843718908430443AC81EA
:100CD000AC8A4FF6FF400440B0890443AC8201A8BF
:100CE000FFF78EFE1F48874202D1DDF810A001E019
:100CF000DDF80CA0A88900F4004040B10AEBCA005E
:100D000000EB0A1031684900B0FBF1F807E00AEB8C
:100D1000CA0000EB0A1031688900B0FBF1F86420CA
:100D2000B8FBF0F004012009642101FB1089A889B7
:100D300000F4004040B1322000EBC900B0FBF1F0FC
:100D400000F00700044308E0322000EB09106421A2
:100D5000B0FBF1F000F00F0004432C8106B0BDE8B9
:100D6000F0870000003801401FB501218803FFF71C
:100D700037FE4FF4E13000900020ADF80400ADF8EC
:100D80000600ADF808000C20ADF80A000020ADF810
:100D90000C0069460348FFF77BFF01210148FFF77C
:100DA0006BFF1FBD0038014008B501210420FFF78B
:100DB00017FE01210420FFF713FE4FF48060ADF809
:100DC000000004208DF8030069460948FFF79CFCE9
:100DD0004FF40070ADF8000018208DF803000320D8
:100DE0008DF8020069460248FFF78EFC08BD00003E
:100DF0000008014010B5FFF7D7FFFFF7B5FF10BDA2
:100E000000BFFEE710B5044621460020FFF709FDAC
:100E100010BD10B5044621464020FFF702FD10BD6D
:100E200070B5002411E000212046FFF7A9FD002540
:100E300007E0074901EBC411485DFFF7EAFF681CB2
:100E4000C5B2802DF5DB601CC4B2082CEBDB70BD95
:100E50002004002002E008C8121F08C1002AFAD1AD
:100E600070477047002001E001C1121F002AFBD12A
:100E700070472DE9F05F83460C4615462046E11782
:100E800004EB5171C910C1F1070101F0FF082846B8
:100E9000E91705EB5171C910C1F1070101F0FF0914
:100EA0002046E11704EB5171C910A4EBC101C1F157
:100EB0000701CEB22846E91705EB5171C910A5EB21
:100EC000C101C1F10701CFB2A8EB090000281FDD65
:100ED00059464046FFF754FD0121B140491EC8B2B2
:100EE000FFF797FF4FF0000A0EE0A8F1010000F0B5
:100EF000FF0859464046FFF743FDFF20FFF789FFF3
:100F00000AF1010000F0FF0ABAF1050FEDDB44E041
:100F1000B8EB090029D159464046FFF731FDF01BD7
:100F200005D10121B140C8B2FFF773FF35E0F01BD6
:100F300000280BDD0121B1400122BA40891A0122AB
:100F4000B2401143C8B2FFF764FF26E0B81B002887
:100F500023DD0121B9400122B240891A0122BA40A1
:100F60001143C8B2FFF755FF17E059464846FFF74F
:100F700007FD0121B940491EC8B2FFF74AFF00BF73
:100F8000A9F1010000F0FF0959464846FFF7F8FCB7
:100F9000FF20FFF73EFFC845F2D0BDE8F09F0000FC
:100FA00008B501210820FFF71BFDC020ADF80000A7
:100FB00003208DF8020014208DF8030069460348D1
:100FC000FFF7A2FB00F048F808BD0000000C01404C
:100FD0007047000070B50446002520E004F0800052
:100FE00018B180200F49086003E080200D49091DD9
:100FF0000860FFF7EDFF40200A490860FFF7E8FFAF
:1010000040200849091D0860072D02D18020091FD2
:1010100008606006040EFFF7DBFF681CC5B2082DF0
:10102000DCDB70BD100C014010B580200949086060
:1010300040200860FFF7CCFF80200649091D0860AA
:10104000FFF7C6FF40200349091D0860FFF7C0FFF6
:1010500010BD0000100C014010B58020054908604B
:101060004020091F0860FFF7B3FF80200149091FD6
:10107000086010BD140C014010B580200C490860B8
:10108000FFF7A6FF40200A490860FFF7A1FF0848C4
:101090000838006800F0800008B1012400E0002456
:1010A00040200349091D0860FFF792FF204610BD4C
:1010B000100C0140FFF7D6FBFFF79CFEFFF704FC86
:1010C000FFF7B2FA0C480088FFF79EF805460B4A76
:1010D0000B4BFFF727F80746FFF7A3F8C4B22046EB
:1010E000FFF7AAFAFFF7D8FB3F2200216420FFF7A1
:1010F000C0FE00BFFEE700001C040020DEAB562649
:10110000FC528F3F24110008000000202004000042
:1011100072030008481200082004002000080000A4
:10112000640E0008412D010203040420090607088B
:101130000902040608100A03050911FF118905C3F5
:1011400012E012F072F8073D4428FF11AA44700B18
:10115000830138448292927401831E7C44C7017DCE
:1011600001990562FF9A0102818A010B01366941EA
:101170009949FA0101A12A4001212A6D01212A6021
:1011800001791501642ADB010915072ADA01212AF0
:10119000D801212AC0010915072A800101352A0634
:1011A000010918071CE66620076A86157A861C2A3C
:1011B0008601180A80808686068686C0C00C0E1CB2
:1011C0000606D030764D2907013113601C12FE133C
:1011D00001021009C41820029E63B20E1DFF818116
:1011E000FFF24440300F12FF180923EAAABFAAEA0F
:1011F000033F0B012DBC808080080115240E0C08D4
:101200002A01013149041D81808081021901B91729
:1012100006110101090C0E0A14C0012178081E21D3
:10122000404050215E08012A4DFFFFC1C10409233F
:101230002DB81580FCF3EFF3FC80FF80EEEEEEF5A9
:08124000FBFF9CBEB6B6883A24
:04000005080000ED02
:00000001FF
