:020000040800F2
:10000000183E0020450100086D28000875250008ED
:1000100069280008591F000821310008000000006D
:10002000000000000000000000000000812C00081B
:10003000CD20000800000000312B0008C12D000871
:100040005F0100085F0100085F0100085F01000810
:100050005F0100085F0100080D2100085F01000832
:100060005F0100085F0100085F0100085D1F0008D4
:100070005F0100085F0100085F0100085F010008E0
:100080005F0100085F0100085F0100085F010008D0
:100090005F0100085F0100085F0100085F010008C0
:1000A0005F0100085F0100085F0100085F010008B0
:1000B0005F0100085F0100085F0100085F010008A0
:1000C0005F0100085F0100085F0100085F01000890
:1000D0005F0100085F0100085F0100085F01000880
:1000E000392100085F0100085F0100085F01000876
:1000F0005F0100085F0100085F0100085F01000860
:100100005F0100085F0100085F0100085F0100084F
:100110005F0100085F0100085F0100085F0100083F
:100120005F0100085F0100085F0100085F0100082F
:10013000DFF80CD001F006FD00480047C53B000881
:10014000183E00200648804706480047FEE7FEE7C5
:10015000FEE7FEE7FEE7FEE7FEE7FEE7FEE7FEE777
:10016000C52D0008310100082DE9F04F4FF0000CBB
:100170004FF0000301EB9C5EBEF90250BEF9004057
:100180000EF5806EBEF90290BEF900800EF5806E0D
:10019000BEF90270BEF900600EF5806EBEF902B0C5
:1001A000BEF900A00EF5806ED044D944A8EB4A0AEF
:1001B000A9EB4B0B4FEAA4044FEAA50504EBA604F8
:1001C00005EBA705A4EB6606A5EB670704EBA804FF
:1001D00005EBA905A4EB6808A5EB690906EBAB06DE
:1001E000A7EBAA07A6EB6B0B07EB6A0A458020F882
:1001F000044B478020F8046BA0F8029020F8048B91
:10020000A0F802A020F804BB03F1010393FAA3FCB9
:10021000B3F5807FAED1A0EB82014FF0100312093D
:100220000FF2341000F1000006B403EB430C6144FC
:10023000A2F5803202EB8332B1F90250B1F90040ED
:10024000A1EB0301B0F902B0B0F900A000F1040085
:10025000A5EB040E0EFB0BFC0AEB4B0E05FB0ACBC9
:1002600004FB0ECAB1F90250B1F90040A1EB030141
:10027000B0F90290B0F9008000F10400A5EB040E83
:100280000EFB09FC08EB490E05FB08C904FB0EC870
:10029000B1F90250B1F90040A1EB0301B0F90270CD
:1002A000B0F9006000F10400A5EB040E0EFB07FCA2
:1002B00006EB470E05FB06C704FB0EC6B1F902505C
:1002C000B1F9004001F10001D044D944A8EB4A0A39
:1002D000A9EB4B0B4FEAA4044FEAA50504EB264417
:1002E00005EB2745A4EBE636A5EBE73704EB2844FE
:1002F00005EB2945A4EBE838A5EBE93906EB2B46DD
:10030000A7EB2A47A6EBEB3B07EBEA3A4D800C80C4
:1003100019444F800E801944A1F80290A1F8008082
:100320001944A1F802A021F804BBB2F5803283DAA7
:1003300003EB430C6144A2F101025FEA024E18BFD5
:10034000A0EB0C007FF476AF06BC4FEA8303920863
:100350007FF46AAFBDE8F08F00400000004000006D
:10036000004000005DDD213BA3227E180000412DEE
:100370007EA5412D0000412D00C000405DDD82E7DB
:100380005DDD213B7EA5412D0040000000400000C6
:1003900000400000AA2A94126B39460649327C0CB0
:1003A000A8118E2349327C0CA3227E1821F77931C3
:1003B000AA2A9412A8118E235DDD213BA3227E1868
:1003C0000000412D95C6B13F461A2B1E58EE373519
:1003D000BEB4C53EA8118E235DDD213B63A97138F3
:1003E000DF089A28B7CDC53E7EA5412D0000412DDE
:1003F00000C0004063A92B1E21F77931BEB4C53E71
:10040000BEB47C0C58EE373561AC213B95C6BAF9C9
:10041000BAE571383BA737355DDD82E75DDD213B0D
:100420007EA5412D21F766D756D53F3D3BA78E23AC
:10043000A811C9CAB7CDC53E61AC7E18AA2AC1C2EF
:1004400095C6B13FBEB47C0C0040000000400000E7
:10045000004000001E3BB504693E9201C83C2403E5
:10046000EB356409C83C24036B3946066C30060E34
:100470001E3BB504EB356409AA2A94126B39460673
:1004800049327C0CAE240917AF37D607882E8D0F62
:100490007E1E5D1BEB356409AA2A941224188C1F5A
:1004A0001E34F10AB3269015A8118E2349327C0C14
:1004B000A3227E18140B60276C30060E7E1E5D1B77
:1004C0007104FB2A882E8D0F461A2B1EC7FD5A2E4B
:1004D0009D2C1211FE15E72021F77931AA2A9412DA
:1004E000A8118E2387F05334B2281314480D202608
:1004F00002EAE536B3269015DF089A289CE32B39EB
:10050000AE2409177104FB2A5DDD213BA3227E186E
:100510000000412D4ED7C53C9320EF198FFB6C2F67
:1005200078D1153E7E1E5D1B21F77931E2CB0F3F5E
:10053000641CC61CB8F2683395C6B13F461A2B1E20
:1005400058EE373597C1FB3F24188C1F02EAE53679
:10055000F0BCEC3FFE15E720BAE57138A6B8853F40
:10056000D5133D2282E1DB39BEB4C53EA8118E23EE
:100570005DDD213B40B1AF3D790FDA244DD9423CDE
:100580002EAE423C480D202656D53F3D8EAB823ADA
:10059000140B602778D1153E63A97138DF089A28BB
:1005A000B7CDC53EB1A71236A906CE2915CA4F3F11
:1005B00078A668337104FB2A95C6B13FBCA5763096
:1005C0003902212C38C3EC3F7EA5412D0000412D7E
:1005D00000C00040BCA5CE29C7FD5A2EF0BCEC3FA0
:1005E00078A620268FFB6C2F09BAB13FB1A73D2218
:1005F00057F976304DB74F3F63A92B1E21F779315C
:10060000BEB4C53E8EABEF19ECF474325EB2153E4B
:100610002EAE9015B8F268332DB03F3D40B11211A7
:1006200087F053342EAE423CBEB47C0C58EE3735C6
:1006300061AC213BA6B8D6072BEC1236C8AADB3931
:10064000F0BC240302EAE53663A9713897C16EFE57
:10065000DCE7B03734A8E53695C6BAF9BAE57138A3
:100660003BA73735E2CB0FF59CE32B3978A66833EF
:1006700078D173F082E1DB39EDA579314ED7EDEB1E
:100680006DDF823A99A56C2F5DDD82E75DDD213B50
:100690007EA5412D9CE33AE352DBB63B99A5FB2AAC
:1006A00002EA19DF4DD9423CEDA59A2887F026DBF6
:1006B0004ED7C53C78A6202621F766D756D53F3DB4
:1006C0003BA78E23C7FDDFD363D3AF3D34A8E7201C
:1006D000710494D078D1153E63A92B1E140B8CCDD8
:1006E00094CF723EC8AA5D1BA811C9CAB7CDC53E3A
:1006F00061AC7E18241850C8E2CB0F3F2EAE901587
:100700007E1E25C615CA4F3F2DB09412AE244AC492
:1007100051C8853F5EB28D0FAA2AC1C295C6B13FAE
:10072000BEB47C0C6C308EC1E2C4D43F4DB76409BA
:10073000EB35B1C038C3EC3F09BA46061E3B2CC0AE
:1007400097C1FB3FF0BC24030040000000400000C4
:1007500000400000D03E2E019B3F6500363FC9009F
:100760009A3D5B02363FC900693E92015F3C8803B7
:10077000D03E2E019A3D5B021E3BB504693E9201BC
:10078000C83C2403D939E205023EF701F43BED03EE
:100790008E380E079A3D5B021E3BB5043F37390881
:1007A000313DC002463A7E05EB356409C83C24035E
:1007B0006B39460692348E0A5F3C88038E380E07EA
:1007C0003433B70BF43BED03AF37D607D231DF0C30
:1007D0008A3B5104CE369D086C30060E1E3BB50494
:1007E000EB356409022F2B0FB23A1A0505352B0A97
:1007F000932D5010463A7E051E34F10A212C7311B8
:10080000D939E2053433B70BAA2A94126B3946065C
:1008100049327C0C3129B413FD38AA065B31410DF5
:10082000B327D2148E380E076C30060E3226EE1522
:100830001F3872077B2FCA0EAE240917AF37D607B1
:10084000882E8D0F262321183F373908932D5010FD
:100850009C213719CE369D089D2C12110E204B1A63
:100860005D360109A42BD3117E1E5D1BEB35640997
:10087000AA2A9412EB1C6C1C7835C709AF295413B3
:10088000561B791D05352B0AB2281314BE19841E78
:1008900092348E0AB327D21424188C1F1E34F10A06
:1008A000B326901588169120A933540BB1254C1608
:1008B000EA1493213433B70BAE2409174A1392225A
:1008C000BF321A0CA923C417A8118E2349327C0CFD
:1008D000A3227E1805108824D231DF0C9C21371901
:1008E000610E7E255B31410D9320EF19BB0C712603
:1008F000E430A40D891FA71A140B60276C30060E74
:100900007E1E5D1B6D094C28F42F680E721D121C93
:10091000C40735297B2FCA0E641CC61C1B061A2A65
:10092000022F2B0F561B791D7104FB2A882E8D0F69
:10093000461A2B1EC702D82B0E2EEE0F3519DC1EC1
:100940001C01B22C932D501024188C1F72FF882D7F
:10095000182DB11011173A20C7FD5A2E9D2C1211D7
:10096000FE15E7201DFC282F212C7311EA1493217A
:1009700073FAF22FA42BD311D5133D22CAF8B83045
:10098000282B3412BF12E72221F77931AA2A9412B8
:10099000A8118E2379F536322D2AF41291103524C0
:1009A000D2F3EF32AF295413790FDA242CF2A333A8
:1009B0003129B413610E7E2587F05334B228131405
:1009C000480D2026E3EEFF34332873142E0CC12685
:1009D00041EDA535B327D214140B6027A1EB48369F
:1009E00033273115FA09FE2702EAE536B3269015BA
:1009F000DF089A2865E87E373226EE15C4073529C8
:100A0000CBE61238B1254C16A906CE2932E5A1381D
:100A10002F25AB168D05652A9CE32B39AE240917CB
:100A20007104FB2A08E2B0392B24661755038F2B7B
:100A300077E0303AA923C4173902212CE9DEAB3A1A
:100A4000262321181C01B22C5DDD213BA3227E1838
:100A50000000412DD5DB923B1F22DB18E4FECF2D99
:100A60004FDAFD3B9C213719C7FD5A2ECDD8643C87
:100A700017219319ABFCE42E4ED7C53C9320EF19F8
:100A80008FFB6C2FD3D5213D0E204B1A73FAF22F1A
:100A90005CD4783D891FA71A57F97630E8D2C93D52
:100AA000041F021B3CF8F93078D1153E7E1E5D1BF9
:100AB00021F779310CD05C3EF81DB81B06F6F831F1
:100AC000A5CE9D3E721D121CECF4743241CDD83E71
:100AD000EB1C6C1CD2F3EF32E2CB0F3F641CC61C44
:100AE000B8F2683388CA403FDD1B201D9FF1DF3319
:100AF00032C96B3F561B791D87F05334E1C7913FD4
:100B0000CE1AD31D6FEFC63495C6B13F461A2B1EC1
:100B100058EE37354EC5CC3FBE19841E41EDA53584
:100B20000CC4E13F3519DC1E2BEC1236CFC2F13F6D
:100B3000AD18341F16EB7D3697C1FB3F24188C1F70
:100B400002EAE53665C000409B17E31FEFE84B372C
:100B500038BFFF3F11173A20DCE7B03711BEF83F2E
:100B600088169120CBE61238F0BCEC3FFE15E7204A
:100B7000BAE57138D4BBDB3F74153D21AAE4CF3808
:100B8000BFBAC43FEA1493219CE32B39AFB9A73F06
:100B90005F14E8218EE28439A6B8853FD5133D2243
:100BA00082E1DB39A2B75D3F4A13922277E0303A07
:100BB000A5B6303FBF12E7226DDF823AAFB5FD3EEA
:100BC00034123B2364DED33ABEB4C53EA8118E2353
:100BD0005DDD213BD5B3883E1D11E22357DC6D3B23
:100BE000F2B2453E9110352452DBB63B15B2FC3DC6
:100BF000051088244FDAFD3B40B1AF3D790FDA2470
:100C00004DD9423C71B05B3DED0E2C254DD8853C55
:100C1000A9AF033D610E7E254ED7C53CE8AEA53C8D
:100C2000D40DCF2551D6033D2EAE423C480D202693
:100C300056D53F3D7BADDA3BBB0C71265CD4783D8D
:100C4000D0AC6D3B2E0CC12663D3AF3D2BACFA3A32
:100C5000A10B11276DD2E33D8EAB823A140B6027B6
:100C600078D1153EF8AA063A870AAF2785D0453EC7
:100C70006AAA8439FA09FE2794CF723EE3A9FD38A7
:100C80006D094C28A5CE9D3E63A97138DF089A28CE
:100C9000B7CDC53EEBA8E1375208E728CCCCEB3EF8
:100CA0007BA84B37C4073529E2CB0F3F12A8B136DA
:100CB00036078129FBCA303FB1A71236A906CE29D3
:100CC00015CA4F3F57A76E351B061A2A32C96B3F0C
:100CD00005A7C6348D05652A51C8853FBBA61934C2
:100CE000FF04B02A72C79C3F78A668337104FB2AC0
:100CF00095C6B13F3EA6B232E303452BBAC5C43F09
:100D00000BA6F83155038F2BE2C4D43FE0A539314F
:100D1000C702D82B0CC4E13FBCA576303902212C88
:100D200038C3EC3FA1A5AF2FAA016A2C66C2F53FDC
:100D30008DA5E42E1C01B22C97C1FB3F81A5152E79
:100D40008E00FA2CCAC0FF3F7EA5412D0000412D28
:100D500000C0004081A56A2C72FF882D38BFFF3F7C
:100D60008DA58F2BE4FECF2D73BEFB3FA1A5B02A2E
:100D700056FE152EB0BDF53FBCA5CE29C7FD5A2E97
:100D8000F0BCEC3FE0A5E72839FD9F2E32BCE13FE7
:100D90000BA6FE27ABFCE42E77BBD43F3EA6112763
:100DA0001DFC282FBFBAC43F78A620268FFB6C2FCE
:100DB00009BAB13FBBA62C2501FBAF2F56B99C3F0A
:100DC00005A7352473FAF22FA6B8853F57A73B2312
:100DD000E5F93430F8B76B3FB1A73D2257F97630CB
:100DE0004DB74F3F12A83D21CAF8B830A5B6303FE5
:100DF0007BA83A203CF8F93000B60F3FEBA8341F2F
:100E0000AEF739315EB5EB3E63A92B1E21F7793180
:100E1000BEB4C53EE3A9201D93F6B93122B49D3E70
:100E20006AAA121C06F6F83188B3723EF8AA021BB1
:100E300079F53632F2B2453E8EABEF19ECF47432EE
:100E40005EB2153E2BACDB185FF4B232CDB1E33DA0
:100E5000D0ACC417D2F3EF3240B1AF3D7BADAB168F
:100E600045F32C33B5B0783D2EAE9015B8F268330B
:100E70002DB03F3DE8AE73142CF2A333A9AF033D70
:100E8000A9AF54139FF1DF3328AFC53C71B03412C2
:100E900013F11934A9AE853C40B1121187F05334D7
:100EA0002EAE423C15B2EE0FFBEF8D34B6ADFD3BDE
:100EB000F2B2CA0E6FEFC63441ADB63BD5B3A40D46
:100EC000E3EEFF34D0AC6D3BBEB47C0C58EE37354E
:100ED00061AC213BAFB5540BCCED6E35F6ABD33ADC
:100EE000A5B62B0A41EDA5358EAB823AA2B7010912
:100EF000B6ECDC3529AB303AA6B8D6072BEC123667
:100F0000C8AADB39AFB9AA06A1EB48366AAA843968
:100F1000BFBA7E0516EB7D360FAA2B39D4BB510420
:100F20008CEAB136B7A9CF38F0BC240302EAE53623
:100F300063A9713811BEF70178E9183712A9123880
:100F400038BFC900EFE84B37C5A8B03765C09BFF75
:100F500065E87E377BA84B3797C16EFEDCE7B0377C
:100F600034A8E536CFC240FD53E7E137F1A77D361F
:100F70000CC413FCCBE61238B1A712364EC5E6FA04
:100F800042E6423874A7A53595C6BAF9BAE5713874
:100F90003BA73735E1C78EF832E5A13805A7C6343F
:100FA00032C963F7AAE4CF38D3A6533488CA39F6D6
:100FB00023E4FD38A4A6DF33E2CB0FF59CE32B3905
:100FC00078A6683341CDE6F315E3583950A6EF32E1
:100FD000A5CEBFF28EE284392CA674320CD098F1E3
:100FE00008E2B0390BA6F83178D173F082E1DB3931
:100FF000EDA57931E8D24FEFFCE0063AD3A5F93000
:101000005CD42DEE77E0303ABCA57630D3D50CED2C
:10101000F2DF593AA9A5F22F4ED7EDEB6DDF823AF8
:1010200099A56C2FCDD8CFEAE9DEAB3A8DA5E42E99
:101030004FDAB4E964DED33A85A55A2ED5DB9AE8B7
:10104000E1DDFA3A7FA5CF2D5DDD82E75DDD213B55
:101050007EA5412DE9DE6DE6DADC473B7FA5B22CAB
:1010600077E059E557DC6D3B85A5212C08E248E483
:10107000D5DB923B8DA58F2B9CE33AE352DBB63B4D
:1010800099A5FB2A32E52DE2D1DADA3BA9A5652A3A
:10109000CBE624E14FDAFD3BBCA5CE2965E81DE097
:1010A000CED9203CD3A5352902EA19DF4DD9423CDF
:1010B000EDA59A28A1EB18DECDD8643C0BA6FE273F
:1010C00041ED19DD4DD8853C2CA66027E3EE1EDCF2
:1010D000CDD7A53C50A6C12687F026DB4ED7C53C10
:1010E00078A620262CF231DACFD6E43CA4A67E25C1
:1010F000D2F33FD951D6033DD3A6DA2479F551D89E
:10110000D3D5213D05A7352421F766D756D53F3DD8
:101110003BA78E23CAF87FD6D8D45B3D74A7E722BD
:1011200073FA9BD55CD4783DB1A73D221DFCBBD49E
:10113000DFD3933DF1A79321C7FDDFD363D3AF3D49
:1011400034A8E72072FF06D3E8D2C93D7BA83A2035
:101150001C0131D26DD2E33DC5A88C1FC70261D1FD
:10116000F2D1FC3D12A9DC1E710494D078D1153E59
:1011700063A92B1E1B06CCCFFED02D3EB7A9791D2F
:10118000C40707CF85D0453E0FAAC61C6D0947CEC0
:101190000CD05C3E6AAA121C140B8CCD94CF723E0C
:1011A000C8AA5D1BBB0CD4CC1CCF883E29ABA71AA8
:1011B000610E21CCA5CE9D3E8EABEF19051073CBF1
:1011C0002ECEB13EF6AB3719A811C9CAB7CDC53E70
:1011D00061AC7E184A1324CA41CDD83ED0ACC417A6
:1011E000EA1483C9CCCCEB3E41AD09178816E8C898
:1011F00057CCFD3EB6AD4C16241850C8E2CB0F3F7D
:101200002EAE9015BE19BEC76ECB203FA9AED2142C
:10121000561B31C7FBCA303F28AF1314EB1CA8C6BE
:1012200088CA403FA9AF54137E1E25C615CA4F3F3A
:101230002DB094120E20A7C5A3C95D3FB5B0D31140
:101240009C212DC532C96B3F40B112112623B9C470
:10125000C1C8783FCDB15010AE244AC451C8853FB3
:101260005EB28D0F3226E0C3E1C7913FF2B2CA0EE3
:10127000B3277BC372C79C3F88B3060E31291CC3BA
:1012800003C7A73F22B4410DAA2AC1C295C6B13FE8
:10129000BEB47C0C212C6DC227C6BB3F5EB5B70B1C
:1012A000932D1DC2BAC5C43F00B6F10A022FD3C1A7
:1012B0004EC5CC3FA5B62B0A6C308EC1E2C4D43FDC
:1012C0004DB76409D2314FC176C4DB3FF8B79D08F2
:1012D000343315C10CC4E13FA6B8D6079234E0C040
:1012E000A1C3E73F56B90E07EB35B1C038C3EC3F99
:1012F00009BA46063F3788C0CFC2F13FBFBA7E0564
:101300008E3864C066C2F53F77BBB504D93945C095
:10131000FEC1F83F32BCED031E3B2CC097C1FB3F22
:10132000F0BC24035F3C19C030C1FD3FB0BD5B027F
:101330009A3D0BC0CAC0FF3F73BE9201D03E03C0AE
:1013400065C0004038BFC900F0B480EA0102D40F84
:101350004200B2EB410F02D20246084611464A0053
:1013600042D0C30DDDB2C1F3C752AD1A202D35DA1C
:10137000C1F3160141F4000204B15242C5F1200646
:1013800002FA06F12A411044B3EBD05F23D0C4B176
:10139000012DA0EBC35009DCF0BC4FF0004202EA83
:1013A000C352DBB200F5000000F0A6B9400000F126
:1013B000807000EBC350A0F1807040EAD17049000A
:1013C00009E0490841EAC071A0EBC35000F50000F4
:1013D000400800EBC350F0BC00F085B96142012227
:1013E00002EB4101001BF6E7F0BC704781F00041C1
:1013F000AAE780F00040A7E780EA010210B502F0FA
:101400000043400022D04A001FD0010E01EB1261C0
:10141000C0F35600C2F3560240F4000042F400024A
:10142000A0FB022000047F39140400D0401C50EAC5
:10143000124001D44000491EC2B20C0604EBD01089
:10144000401C4008802A02D003E0002010BD20F09C
:101450000100002900DA0020184310BD30B480EAF2
:10146000010202F0004530F0004221F0004013D0AC
:1014700090B1C30DD40DC2F31601C0F31600E41AE7
:1014800041F4000140F400027D34914201D3641C18
:1014900000E04900002C02DA30BC002070474FF415
:1014A00000000023914201D3891A034340084FEA08
:1014B0004101F7D151B1914202D14FF0004105E015
:1014C00002D24FF0010101E06FF0010103EBC450C3
:1014D000284430BC00F007B92DE9F04D81EA03043F
:1014E00004F0004B21F0004514464FF0000A23F0B1
:1014F000004150EA050220D054EA01021DD0C5F394
:101500000A570246C5F31303C1F31300C1F30A5689
:1015100040F4801543F48013A7EB0608101BD64651
:1015200008F2FD3873EB050002D308F1010801E071
:1015300092185B41B8F1000F03DA00200146BDE8C4
:10154000F08D00204FF48011064684460EE0171BF4
:1015500073EB050705D3121B63EB050306434CEA47
:10156000010C49084FEA300092185B4150EA01072C
:10157000EDD152EA030012D082EA040083EA0501A9
:10158000084305D0101BAB4106D20122002306E020
:1015900000224FF0004302E06FF0010253101AEBFB
:1015A00006004CEB085110EB0A0041EB0B01BDE8C3
:1015B000F04D00F0CFB8C10F80EAE0700844CA07D0
:1015C0009623002100F098B896230022114600F0DF
:1015D00093B820F00040C10DC0F3160040F40000A5
:1015E0007F2901DA00207047962903DCC1F19601BA
:1015F000C840704796398840704700F0004230F08C
:1016000000400AD0C10D01F56071C0F3160042EA36
:101610000151C2084007114370470020014670473E
:1016200001F0004330B421F0004150EA010206D03D
:101630000A0DA2F56072C1F31301002A02DC30BC6E
:1016400000207047440F44EAC104C100E01830BCD8
:1016500000EBC25000F047B830B50B460146002001
:101660002022012409E021FA02F59D4205D303FA64
:1016700002F5491B04FA02F52844151EA2F10102E5
:10168000F1DC30BD2DE9F05F0546002092469B4617
:1016900088460646814640241BE028464146474688
:1016A000224600F070FA53465A46C01A914110D3B0
:1016B00011461846224600F057FA2D1A67EB01082A
:1016C0004F4622460120002100F04EFA17EB000998
:1016D0004E41201EA4F10104DFDC484631462A4673
:1016E0004346BDE8F09F0029A8BF7047401C490051
:1016F00008BF20F00100704710B4B0FA80FC00FA77
:101700000CF050EA010404BF10BC704749B1CCF1A1
:10171000200421FA04F411FA0CF118BF012121432D
:101720000843A3EB0C01CB1D4FEA00614FEA1020E8
:1017300042BF002010BC704700EBC350104400298A
:10174000A4BF10BC7047401C490008BF20F0010036
:1017500010BC704710B5141E73F1000408DA401C69
:1017600041F1000192185B411A4301D120F00100C0
:1017700010BD2DE9F04D92469B4611B1B1FA81F2B0
:1017800002E0B0FA80F22032904600F0EDF9044613
:101790000F4640EA0A0041EA0B0153465A46084305
:1017A00013D0114653EA010019D0C8F14002504647
:1017B00000F0E9F905460E4650465946424600F00B
:1017C000D3F9084305D0012004E020463946BDE89E
:1017D000F08D0020054346EAE0762C4337430A9813
:1017E0006305E40AA0EB08000022FD0A44EA47541E
:1017F0000A3002D500200146E9E7010510196941C8
:10180000DDE9084500196941BDE8F04DA2E72DE981
:10181000FE4F804681EA0300C00F0C46009021F085
:10182000004123F00045B8EB0200A94105D2404633
:10183000214690461C460B46024623F000401043CA
:1018400047D0270DC7F30A00C3F30A510290401A8C
:10185000019040286BDAC3F3130040F4801B00981A
:10186000924620B10023D2EB030A63EB0B0B0198E5
:101870005946C0F14002504600F076F906460D4642
:1018800050465946019A00F08EF910EB080061416C
:10189000002487EA115284EAE7731A4340D0009A81
:1018A00062B3019A012A4FEA075215DC001B61EB73
:1018B00002014FF0004202EA0752CDE90042001C4B
:1018C00041F5801132462B46FFF753FF03B0BDE8C8
:1018D000F08F40462146F9E7001B61EB0201001C36
:1018E00041F5801300185B412018A2F5001747EB63
:1018F000030140EAD570B6196D4111E06D084FEA59
:10190000360645EAC0754FEA0752001B61EB02013B
:10191000001C41F5801149084FEA3000001951417F
:1019200032462B4603B0BDE8F04FFFF713BF0098D7
:10193000012240000023D0EB020263EBE073009829
:1019400021464FEAE074B8EB000061EB0401E9E7DF
:1019500083F000435BE781F0004158E72DE9FE4F3B
:1019600081EA030404F0004421F0004100944FF0A8
:10197000000B23F0004350EA01045ED052EA030456
:101980005BD0C3F30A54C1F30A552C44A4F2F334D8
:101990000194A0FB0254C1F3130141F48011C3F37D
:1019A000130343F4801301FB024400FB034E840A3B
:1019B000970A44EA815447EA8357A4FB07680295D3
:1019C0008D0A05FB07854FEA932C04FB0C54270571
:1019D000029D4FEA065847EA1637B5EB08056EEB4D
:1019E000070C870E920E47EA811742EA8312A7FB83
:1019F0000201B6EB0B0164EB00042B0D43EA0C3340
:101A00005E1844EB1C50DA465146E7FB0201C5F371
:101A100013044FEA0B3343EA14534FEA0432019C98
:101A200043EA0603A4F10C040294009CCDE900B43F
:101A3000FFF79FFE03B0BDE8F08F00200146F9E7F5
:101A40002DE9F04D00231A461B1A8A4103DB0020C2
:101A50000146BDE8F08DC1F30A52C1F3130141F410
:101A600080154FF0000BD10702D100186D41521EB6
:101A70000027044640F2FF11384601EB620A3E4659
:101A80008046024600204FF4801100F07CF8C21915
:101A90007141BB1846EB0100B4EB030C75EB000C75
:101AA00004D3E41A65EB000517460E46241908F125
:101AB00001006D4180463428E3DDF91946EB06004C
:101AC000091BA84103D24FF0FF32134601E0002268
:101AD00013461BEB070046EB0A51BDE8F04DFFF73C
:101AE00039BEC1F30A52C1F3130140F2FF3341F48E
:101AF00080119A4202DA00200146704740F23343D7
:101B00009A42A2F2334202DC524200F03CB800F0AA
:101B10002BB8000030B5041E71F1000404DB4FF057
:101B20000044404264EB0101141E73F1000405DB24
:101B30001C464FF00043524263EB0403994208BF36
:101B4000904230BD064C074D06E0E06840F00103CE
:101B500094E8070098471034AC42F6D3FEF7ECFA4D
:101B60005844000878440008202A04DB203A00FA90
:101B700002F1002070479140C2F1200320FA03F3E4
:101B8000194390407047202A04DB203A21FA02F0E2
:101B90000021704721FA02F3D040C2F120029140A7
:101BA000084319467047202A06DBCB17203A41FA32
:101BB00002F043EAE07306E041FA02F3D040C2F1DA
:101BC0002002914008431946704770B58D1810F8EF
:101BD000014B14F0030201D110F8012B231106D19F
:101BE00010F8013B03E010F8016B01F8016B521E85
:101BF000F9D1ABB110F8012B04F00C048A1A0C2CAB
:101C000003D0A2EB84129B1C08E010F8014BA2EB5E
:101C10000422F8E712F8014B01F8014B5B1EF9D5DD
:101C2000A942D4D3002070BD21B1826842F00102E4
:101C3000826003E0826822F001028260704721B175
:101C4000826842F48072826003E0826822F48072CB
:101C50008260704721B1826842F48012826003E0A2
:101C6000826822F4801282607047014600208A68F0
:101C700002F004020AB1012000E0002070470000D9
:101C800030B502460020002350680F4C20400D79EB
:101C90000C6844EA05242043506090680B4C2040B7
:101CA000D1E902542C434D7944EA45042043906025
:101CB000D06A20F470000C7C641EE4B2234340EA36
:101CC0000350D06230BD0000FFFEF0FFFDF7F1FFD2
:101CD000F0B504460D4600200021092D11DDE06815
:101CE000A5F10A0606EB4607072606FA07F1884320
:101CF000A5F10A0606EB460603FA06F10843E06082
:101D00000CE0206905EB4507072606FA07F1884332
:101D100005EB450603FA06F108432061072A0FDAAE
:101D2000606B561E06EB86071F2606FA07F18843EE
:101D3000561E06EB860605FA06F10843606322E0AC
:101D40000D2A0FDA206BD61F06EB86071F2606FA30
:101D500007F18843D61F06EB860605FA06F108430D
:101D6000206310E0E06AA2F10D0606EB86071F264D
:101D700006FA07F18843A2F10D0606EB860605FA7E
:101D800006F10843E062F0BD816841F00401816022
:101D90007047000000B585B00121480200F0F6FE52
:101DA000002000908DF805000390029001208DF82E
:101DB000100000208DF8040069461248FFF760FF0C
:101DC0004FF4404000F0B6FE072301220B210D48DE
:101DD000FFF77EFF01210B48FFF726FF0948FFF7B9
:101DE000D3FF00BF0748FFF740FF0028FAD00121CA
:101DF0000448FFF724FF01210248FFF72BFF05B03D
:101E000000BD00000024014000B58BB00121084650
:101E100000F09CFE104800901048019000200290B5
:101E20004FF48060039000200490802005904000D3
:101E30000690800007902020089000020990002062
:101E40000A906946064800F002F90121044800F0B2
:101E5000E9F80BB000BD00004C2401401431002013
:101E60000800024008B50121102000F08FFE01217A
:101E7000102000F08BFE0220ADF8000000208DF84D
:101E800003006946054800F079FA0420ADF8000027
:101E90006946024800F072FA08BD000000100140D7
:101EA00010B5FFF7DFFF00F0F1F8FFF7ADFFFFF728
:101EB00071FF10BD00B587B00121C80200F066FEB9
:101EC0000220ADF810000020ADF8120040F2E7301B
:101ED000ADF814000020ADF816008DF8180004A924
:101EE0000E4801F007F86020ADF800000120ADF8C1
:101EF00002006420ADF806000020ADF80800694635
:101F0000064800F0ABFF0121044800F097FF0021D4
:101F1000024800F087FF07B000BD0000002C014020
:101F200008B50121042000F031FE18208DF80300CF
:101F30004FF48070ADF8000003208DF80200694670
:101F4000014800F01BFA08BD0008014010B5FFF77A
:101F5000E7FFFFF7AFFF10BD00BFFEE7FEB50024AF
:101F6000002700200090019002900021204800F0FE
:101F700059F8022000F048F81E4800F09FF900F0E0
:101F8000D3FC1D480068FFF738FB05462A460B4680
:101F90001AA1684601F0D4F801236A4600210846D8
:101FA00000F050FD00BF0BE0124931F81400C117DA
:101FB00000EB9161C1F38711124A1155601C84B284
:101FC000802CF1DB012409E00E4B1A5D631E0D4DE0
:101FD000E95CE0B201F03CFD601C84B2802CF3DBD4
:101FE000962000F075F80121014800F01BF8FEBDB5
:101FF000080002401431002018000020252E316610
:1020000020487A001430002000F0805111B10349BB
:10201000086001E002494860704700000404024083
:102020000000024021B1026842F00102026004E0B7
:1020300002684FF6FE731A40026070471AB10368D7
:102040000B43036002E003688B430360704710B5E5
:102050000022026847F6F0739A430C6A8B682343A8
:102060000C6923434C6923438C692343CC69234384
:102070004C6A23438C6A23431A430260CB68436053
:102080000B6883604B68C36010BD000008B5012178
:10209000084600F05BFD4FF4A06000F03BFC0B2015
:1020A0008DF8000001208DF8010000208DF802005D
:1020B00001208DF80300684600F0F4FB01220221A4
:1020C0000148FFF7BBFF08BD080002407047000051
:1020D00070B504460C4800F049FE002508E000BF3A
:1020E0004FF0E020006900F480300028F8D06D1C2B
:1020F000A542F4D34FF0E020006920F001004FF03A
:10210000E021086170BD00004019010010B50120F8
:1021100000F030F860B10748007818B9012005498F
:10212000087002E0002003490870012000F01CF84C
:1021300010BD00000C10002010B54FF4005000F04E
:1021400019F868B10748007818B9012005490870E6
:1021500002E00020034908704FF4005000F004F83A
:1021600010BD00000C1000200149086070470000FD
:1021700014040140014600200022074B1B6803EABB
:102180000102054B14331B680B4013B10AB1012047
:1021900000E00020704700000004014000212349B6
:1021A0008279002A3AD00A46126803689A430B469D
:1021B0001A600A1D126803689A430B1D1A6002799F
:1021C00011440A6803681A430A60184A0832126800
:1021D00003689A43154B08331A601A1D1268036886
:1021E0009A43124B0C331A604279102A0ED11A1FEF
:1021F000126803681A430D4B08331A601A1D1268DF
:1022000003681A43094B0C331A600DE00749427901
:1022100011440A6803681A430A6005E00279114410
:102220000A6803689A430A6070470000000401408E
:102230000EB50121052000F0A9FC00F018FB0120DB
:10224000ADF8080004208DF80B0002A9194800F031
:1022500095F80021084600F071F801200090002058
:102260008DF8040008208DF8050001208DF8060087
:102270006846FFF793FF4FF40050ADF808000420C4
:102280008DF80B0002A90C4800F078F80D2102200F
:1022900000F054F84FF40050009000208DF8040036
:1022A0000C208DF8050001208DF806006846FFF728
:1022B00075FF0EBD00080140001001402DE9F041FE
:1022C000054600240026002700BF07E035F814006B
:1022D0000004154941F82400601C84B2B4F5806FF5
:1022E000F4DB4FF4806210491048FDF73DFF00F029
:1022F000D1F801240AE00E4850F82400B84203DD6A
:102300000B4850F824702646601C84B2B4F5007F58
:10231000F1DB3046FFF758F980460649FFF76CF8C5
:1023200005490860BDE8F081141000201420002049
:10233000142800200080BB411800002030B5002286
:102340008B071C0F0F2303FA04F20B4B8C1053F86E
:1023500024309343084C8D1044F8253023468C10CC
:1023600053F824308C07240F00FA04F42343024C62
:102370008D1044F8253030BD080001402DE9F041B2
:10238000024600250026002000230024002791F8A3
:1023900003C00CF00F0591F803C00CF0100CBCF159
:1023A000000F03D091F802C04CEA050591F800C077
:1023B000BCF1000F31D0146800202BE04FF0010C6D
:1023C0000CFA00F3B1F800C00CEA03069E4220D1DB
:1023D00083004FF00F0C0CFA03F7BC4305FA03FC23
:1023E0004CEA040491F803C0BCF1280F06D14FF069
:1023F000010C0CFA00FCC2F814C00AE091F803C00A
:10240000BCF1480F05D14FF0010C0CFA00FCC2F8EA
:1024100010C0401C0828D1D31460B1F800C0BCF132
:10242000FF0F34DD546800202EE000F1080C4FF05F
:10243000010808FA0CF3B1F800C00CEA03069E424A
:1024400021D183004FF00F0C0CFA03F7BC4305FABF
:1024500003FC4CEA040491F803C0BCF1280F05D139
:1024600000F1080C08FA0CF8C2F8148091F803C0C7
:10247000BCF1480F07D100F1080C4FF0010808FA31
:102480000CF8C2F81080401C0828CED35460BDE878
:10249000F08100002DE9F04F89B000245DE0324862
:1024A00050F824004FEA20492F4830F824000FFA52
:1024B00080FA4846FFF77FF880464FF08941FEF7E3
:1024C0009BFF07464FF08E41FEF7C8FF054650467A
:1024D000FFF771F880464FF08941FEF78DFF074600
:1024E0004FF08E41FEF7BAFF064631463046FEF702
:1024F00083FF294602902846FEF77EFF019002994D
:10250000FEF722FF0390FFF778F8CDE9040101F010
:1025100071FB0022154BCDE90601FEF7DDFF0746F2
:10252000FFF77EF883465CB94FF08E415846FEF7C0
:1025300063FF0746FFF74DF80D4941F824000AE014
:102540004FF08F415846FEF757FF0746FFF741F817
:10255000074941F82400601C84B2B4F5007F9EDB7B
:1025600009B0BDE8F08F000014200020000090406A
:102570001428002000BFFEE770B5024600240025A5
:1025800000230020958A138B1B0445EA030626F0DE
:102590007F4404EA01068E4201D1012000E00020C0
:1025A00070BD21B1028842F00102028004E002887D
:1025B0004FF6FE731A4002807047000000B585B0E8
:1025C0000121480500F0D2FA0121082000F0DEFACE
:1025D0004020ADF8000003208DF802001C208DF88B
:1025E000030069461348FFF7C9FE8020ADF80000DC
:1025F00069461048FFF7C2FE0020ADF808004BF610
:10260000FF70ADF80A007820ADF80C004FF4806040
:10261000ADF80E000001ADF810000748019001A9C7
:10262000064800F043F801210448FFF7BAFF05B05F
:1026300000BD0000000C0140801A0600005400405C
:1026400021B1028842F48072028004E002884FF6D1
:10265000FF631A400280704721B1028842F4007281
:10266000028004E002884FF6FF531A400280704750
:102670000CB50246002000230193009300920B0F3B
:10268000019321F07F41019B1BB1009B1433009308
:1026900003E0090C009B18330093009B1B680B4060
:1026A0000BB1012000E000200CBD00002DE9F0433B
:1026B00085B004460D460026B1460427DFF8CC80DD
:1026C000A6884FF6C0700640684600F06FFADDF845
:1026D00008802F48B8FBF0F01FFA80F946EA090697
:1026E000A68020884FF6FE710840208000262949E8
:1026F000286888420CD828684000B8FBF0F087B200
:10270000042F00DA04273E4309F10100208427E06A
:10271000E8884BF6FF71884206D1286800EB40003C
:10272000B8FBF0F087B209E0286800EBC00101EBCC
:102730000010B8FBF0F087B247F48047C7F30B00F6
:1027400008B947F0010747F4004006434FF496707C
:1027500009FB00F04FF47A7190FBF1F0401C2084EB
:10276000A683208840F00100208026884FF6F530AF
:102770000640A8886989084306432680A8892989D4
:102780000843208105B0BDE8F083000000127A0004
:1027900040420F00A086010012B141F0010102E0A9
:1027A0004FF6FE73194001827047018270470000A6
:1027B00070B504460D4600BF4FF400311C48FFF7CA
:1027C00057FF0028F8D101211948FFF739FF00BF52
:1027D00018491748FFF7D0FE0028F9D000227821C9
:1027E0001348FFF7D9FF00BF13491148FFF7C4FE94
:1027F0000028F9D021460E48FFF7D7FF00BF0E4949
:10280000891C0B48FFF7B8FE0028F8D02946084875
:10281000FFF7CBFF00BF0849891C0548FFF7ACFE56
:102820000028F8D001210248FFF716FF70BD000014
:1028300000540040010003008200070008B5012198
:10284000082000F0A3F94FF48050ADF800001020EC
:102850008DF8030003208DF8020069460148FFF758
:102860008DFD08BD000C014000BFFEE7704708B5B4
:102870004FF4A06000F04EF806208DF80000002014
:102880008DF8010002208DF8020001208DF8030070
:10289000684600F007F828208DF80000684600F030
:1028A00001F808BD70B5002100230F22C47804B3DD
:1028B000154C246804F4E064C4F5E064210AC1F115
:1028C0000403CA40447804FA03F184781440214395
:1028D00009010E4C0678A155047804F01F05012467
:1028E000AC4005786D11AD0005F1E025C5F800415B
:1028F00009E0047804F01F050124AC40044D06787B
:10290000761145F8264070BD0CED00E000E400E0D3
:1029100080E100E002490143024A11607047000073
:102920000000FA050CED00E010B5002000F001F801
:1029300010BD70B50646002415E004F1B001C8B220
:1029400000F0F0FB002000F0EDFB102000F0EAFBAF
:10295000002504E0304600F0ECFB681CC5B2802D79
:10296000F8DB601CC4B2082CE7DB70BD10B54FF477
:102970007A70FFF7ADFBAE2000F0D4FB202000F012
:10298000D1FB102000F0CEFBB02000F0CBFBC82024
:1029900000F0C8FB002000F0C5FB102000F0C2FBD7
:1029A000402000F0BFFB812000F0BCFBFF2000F0C6
:1029B000B9FBA12000F0B6FBA62000F0B3FBA820D5
:1029C00000F0B0FB3F2000F0ADFBA42000F0AAFB1C
:1029D000D32000F0A7FB002000F0A4FBD52000F0DE
:1029E000A1FBF02000F09EFBD92000F09BFB2220F1
:1029F00000F098FBDA2000F095FB122000F092FB2B
:102A0000DB2000F08FFB202000F08CFB8D2000F0FD
:102A100089FB142000F086FBAF2000F083FB10BD83
:102A200070B504460D4605F1B001C8B200F07AFB5E
:102A300004F00F0000F076FB102141EA141000F0C2
:102A400071FB70BD2DE9F0470646894617469A4648
:102A50004FF0000800240025BAF1010F03D0BAF1AD
:102A6000020F5ED125E020E0785D203800F0FF08FD
:102A70007E2E04DD002609F1010000F0FF09494621
:102A80003046FFF7CDFF002409E008EB4801264A55
:102A900002EB4101085D00F04CFB601CC4B2062C47
:102AA000F3DBB01DC6B2681CC5B2785D0028DBD16F
:102AB00037E032E0785D203800F0FF08782E04DD42
:102AC000002609F1010000F0FF0949463046FFF7F2
:102AD000A7FF002407E004EB0811144A505C00F043
:102AE00028FB601CC4B2082CF5DB09F10100C1B25F
:102AF0003046FFF795FF002408E004EB0811083189
:102B00000A4A505C00F015FB601CC4B2082CF4DBD0
:102B100006F10800C6B2681CC5B2785D0028C9D1AC
:102B200000BF00BFBDE8F087403C0008683E0008D9
:102B30007047000001460020034A506820F44040DE
:102B400008435060704700000010024029B1064A57
:102B500052690243044B5A6104E0034A52698243BA
:102B6000014B5A61704700000010024029B1064A2B
:102B7000D2690243044BDA6104E0034AD26982431A
:102B8000014BDA61704700000010024029B1064A8B
:102B900092690243044B9A6104E0034A92698243BA
:102BA000014B9A61704700000010024030B50021CF
:102BB0000022002400232D4D6D6805F00C0121B189
:102BC000042905D0082923D105E0294D056022E01C
:102BD000274D05601FE0254D6D6805F47012234DEB
:102BE0006D6805F48034022505EB92421CB9214D35
:102BF000554305600BE01D4D6D6805F400351DB1B2
:102C00001C4D5543056002E0194D5543056002E037
:102C1000174D056000BF00BF144D6D6805F0F00151
:102C20000909154D6B5C0568DD4045600F4D6D6809
:102C300005F4E061090A104D6B5C4568DD40856074
:102C40000A4D6D6805F46051C90A0B4D6B5C45680F
:102C5000DD40C560054D6D6805F44041890B074DA9
:102C60006B5CC568B5FBF3F5056130BD0010024033
:102C700000127A0000093D00000000201000002032
:102C8000704710B500F002F810BD00000CB5002030
:102C9000019000903348006840F48030314908606A
:102CA00000BF3048006800F4003000900198401CDC
:102CB0000190009818B90198B0F5A06FF1D129489A
:102CC000006800F4003010B10120009001E0002005
:102CD00000900098012843D12348006840F010007C
:102CE000214908600846006820F003000860084693
:102CF000006840F0020008601A48406819494860BE
:102D00000846406848600846406840F48060486073
:102D10000846406820F47C1048600846406840F44B
:102D2000E81048600846006840F08070086000BF06
:102D30000C48006800F000700028F9D0094840688D
:102D400020F00300074948600846406840F0020050
:102D5000486000BF0348406800F00C000828F9D123
:102D60000CBD0000001002400020024030B50146BA
:102D7000B1F1807F01D3012030BD21F07F40401EA2
:102D80004FF0E022506150170F22002807DA130796
:102D90001D0E094B00F00F04241F1D5503E01307FF
:102DA0001C0E064B1C5400BF00204FF0E022906127
:102DB000072010610020DFE718ED00E000E400E0EC
:102DC0007047000010B51348006840F00100114939
:102DD000086008464068104908400E4948600846A7
:102DE00000680E4908400B4908600846006820F456
:102DF000802008600846406820F4FE0048604FF4D8
:102E00001F008860FFF73DFF4FF000600449086035
:102E100010BD0000001002400000FFF8FFFFF6FEAA
:102E200008ED00E021B1028842F00102028004E0D6
:102E300002884FF6FE731A400280704731B1B0F835
:102E4000442042F40042A0F8442005E0B0F84420B9
:102E5000C2F30E02A0F844207047000070B50024B1
:102E600000220023058C4FF6FE7635400584028C47
:102E70008388048B4FF68F752C40B51E2C400D882F
:102E80002C43751E2A400D892A434D882A43144D30
:102E9000A8420BD0134DA84208D0134DA84205D02C
:102EA000124DA84202D0124DA84213D14FF6F77529
:102EB0002A404D892A434FF6FB752A408D882A43C4
:102EC0004FF6FF652B404FF6FF552B408D892B4366
:102ED000CD892B4383800483CD888586028470BD91
:102EE000002C0140003401400040014000440140FA
:102EF00000480140002202881D4B98420ED01D4B15
:102F000098420BD0B0F1804F08D01B4B984205D0AF
:102F10001A4B984202D01A4B984204D14FF68F7345
:102F20001A404B881A43174B984207D0164B9842C9
:102F300004D04FF6FF431A40CB881A4302808B8897
:102F400083850B8803850A4B98420BD0094B984226
:102F500008D00E4B984205D00D4B984202D00D4B35
:102F6000984201D10B7A03860123838270470000C7
:102F7000002C0140003401400004004000080040E3
:102F8000000C0040001000400014004000400140D0
:102F9000004401400048014021B1828942F40052BE
:102FA000828104E082894DF6FF731A408281704766
:102FB0002DE9F04786B005460E460024A24600BF24
:102FC000A1460027B08900B100BF2F462C8A4CF6DD
:102FD000FF700440F08804432C82AC894EF6F31055
:102FE0000440B08831890843718908430443AC81A7
:102FF000AC8A4FF6FF400440B0890443AC8201A87C
:10300000FFF7D4FD1F48874202D1DDF810A001E090
:10301000DDF80CA0A88900F4004040B10AEBCA001A
:1030200000EB0A1031684900B0FBF1F807E00AEB49
:10303000CA0000EB0A1031688900B0FBF1F8642087
:10304000B8FBF0F004012009642101FB1089A88974
:1030500000F4004040B1322000EBC900B0FBF1F0B9
:1030600000F00700044308E0322000EB091064215F
:10307000B0FBF1F000F00F0004432C8106B0BDE876
:10308000F0870000003801401FB501218803FFF7D9
:103090007DFD4FF4E13000900020ADF80400ADF864
:1030A0000600ADF808000C20ADF80A000020ADF8CD
:1030B0000C0069460348FFF77BFF01210148FFF739
:1030C0006BFF1FBD0038014008B501210420FFF748
:1030D0005DFD01210420FFF759FD4FF48060ADF83C
:1030E000000004208DF8030069460948FFF746F9FF
:1030F0004FF40070ADF8000018208DF80300032095
:103100008DF8020069460248FFF738F908BD000053
:103110000008014010B5FFF7D7FFFFF7B5FF10BD5E
:1031200000BFFEE710B5044621460020FFF740FB34
:1031300010BD10B5044621464020FFF739FB10BDF5
:103140000FB4084B10B504A902AA039800F0E4F8E4
:10315000044602A9002000F076FC204610BC5DF871
:1031600014FB0000473A000802E008C8121F08C11B
:10317000002AFAD170477047002001E001C1121FF8
:10318000002AFBD170470000014908607047000029
:10319000101000202DE9FF5F82B00021DDE904302E
:1031A000020DDDF840B0034318D044F61050A2F2EF
:1031B000FF3242431514119801281FD0A5EB0B00D4
:1031C000401C5FEA000A4FF000064E4FDFF83891CE
:1031D000B046504615D5CAF1000413E011980124F9
:1031E0004AA3012801D16FEA0B010298119AC0E9A4
:1031F0000031C0E9024206B0BDE8F09FCBF100000B
:10320000DFE704460021404A491842EB0450CDE96B
:10321000001012E0E00707D032463B4640464946E0
:10322000FEF79CFB8046894632463B4610461946CF
:10323000FEF794FB06460F466410002CEAD1DDE948
:103240000401DDE90023BAF1000F06DAFEF786FB80
:1032500042464B46FEF782FB05E0FEF73DF942464B
:103260004B46FEF739F904460E460022284BFEF77E
:1032700051FC03D84FF0FF30014607E00022254BF8
:1032800020463146FEF7C3FAFEF72BFC102409E076
:10329000002C0ADB0A220023FEF7F4F9039B3032EC
:1032A0001A55641E50EA0102F2D1641C039AC4F15B
:1032B00011031444119A012A03D0012208430DD1AD
:1032C0000AE0084304D000204FF0110B119072E780
:1032D000A3EB0B056D1E0DE05B4504DD4FF0000216
:1032E00005F1010504E003DA4FF00002A5F1010544
:1032F000002AECD002981199C0E90231C0E90045DA
:1033000079E70000000014400000F03F30000000AA
:103310000000F0430000E03F2DE9FF4F95B09B46D1
:103320008946064600250FE2252877D10024274646
:10333000F84A0121059400E0044316F8013F203BC0
:1033400001FA03F01042F7D130782A2811D06FF03B
:103350002F033078A0F13002092A16D8059A44F0DC
:10336000020402EB820203EB42021044761C059039
:10337000EFE759F8042B0592002A03DA504244F48F
:103380000054059044F00204761C30782E2816D1A3
:1033900016F8010F44F004042A280DD06FF02F0214
:1033A0003078A0F13003092B09D807EB870302EB33
:1033B0004303C718761CF3E759F8047B761C307872
:1033C0006C280FD006DC4C2817D068280DD06A284E
:1033D00014D104E0742810D07A280FD10DE044F401
:1033E00000140AE044F4801401E044F440147278BC
:1033F000824202D104F58014761C761C307866284F
:103400000BD013DC582877D009DC002875D045286C
:10341000F6D04628F4D047281AD19DE118E0632859
:1034200035D0642879D0652812D195E1702873D001
:1034300008DC6728F1D069286FD06E280DD06F287E
:1034400006D1B5E073282CD0752875D0782874D0B3
:103450005A46179990476D1C75E1C4F30250022833
:1034600009D003280DD0D9F8001004280DD00D6024
:1034700009F1040967E1D9F80010EA17C1E900521F
:10348000F6E7D9F800100D80F2E70D70F0E719F8B3
:10349000041B8DF8001000208DF80100EA46012081
:1034A00003E059F804AB4FF0FF3061074FF0000123
:1034B00002D40DE008F101018846B9420FDA8045D7
:1034C000F8DB1AF808100029F4D108E008F101012E
:1034D00088468142FADB1AF808100029F6D10598CF
:1034E0005B46A0EB080721463846179A00F094FA8D
:1034F000284400EB080507E04DE029E10DE01AF84B
:10350000010B5A4617999047B8F10108F7D25B466C
:1035100021463846179A13E142E00A220092C4F38A
:1035200002524FF0000A022A08D059F804CB032AAD
:103530004FEAEC710AD00DE029E02AE009F1070119
:1035400021F00702F2E802C1914609E00FFA8CFC73
:103550004FEAEC71042A03D14FFA8CFC4FEAEC716C
:10356000002907DA0A460021DCF1000C61EB0201B8
:103570002D2202E0220504D52B228DF80420012201
:1035800003E0E20701D02022F7E7904659E00A2144
:1035900002E010220DE010214FF0000A00910BE034
:1035A00010224FF0000A44F004040827009203E0C0
:1035B00008224FF0000A0092C4F30252022A05D0FA
:1035C00059F804CB0021032A08D009E009F10701CA
:1035D00021F00702F2E802C1914605E01FFA8CFCD7
:1035E000042A01D10CF0FF0C4FF00008220728D567
:1035F000702806D0009B83F0100353EA0A0305D01D
:103600000EE040228DF80420012208E05CEA01026D
:1036100006D030228DF804208DF805000222904655
:10362000009B83F0080353EA0A030AD15CEA010213
:1036300001D1620705D530228DF804204FF0010832
:103640007F1E582804D034A003900EA802900DE0ED
:1036500036A0F9E753466046009AFEF713F8844611
:103660000398825C0298401E029002705CEA01009E
:10367000F0D1029806A9081A00F1200A600702D5C5
:1036800024F4803400E00127574502DDA7EB0A004F
:1036900000E0002000EB0A01009005984144401A28
:1036A0000590E00306D45B462146179A059800F082
:1036B000B3F90544002706E001A85A46C05D1799F2
:1036C00090476D1C7F1C4745F6DBE0030CD55B463D
:1036D0002146179A059800F09FF9054404E0302030
:1036E0005A46179990476D1C0099481E0090002972
:1036F000F5DC08E0029802995A460078491C0291CC
:10370000179990476D1CBAF10001AAF1010AF1DC8A
:1037100065E1000009280100303132333435363795
:10372000383961626364656600000000303132330D
:1037300034353637383941424344454600000000AD
:1037400000F058F90544761C307800287FF4ECAD81
:1037500019B02846BDE8F08F620700D4062709F1AA
:10376000070222F0070CFCE80223E14603F00048C0
:103770005FEA080C02D00FF2702C0DE05FEA045CE7
:1037800002D50FF2682C07E05FEAC47C02D00FF28A
:10379000602C01E0AFF2700C4FF0FF3823F00043D3
:1037A000CDF850C065280CD006DC452809D0462845
:1037B0001DD047283DD13DE0662818D067287ED12E
:1037C00038E00021112F01DB112000E0781CCDE949
:1037D000000106A90EA8FFF7DDFCDDE90F010E9A36
:1037E00003910021009207F1010A04914DE04FF08E
:1037F00000400097CDE9011006A90EA8FFF7CAFC0A
:10380000DDE90F0203920E9B11990022DDF80CA056
:103810000093049211B9791C00EB010AB7EB0A007E
:1038200004D4C0F1FF3007F1010A0490AAEB0700AD
:10383000019044E0012F00DA01270021112F01DD62
:10384000112000E03846CDE9000106A90EA8FFF7D7
:10385000A1FCDDE90F010E9A039100210491009271
:10386000BA4621070CD40399514500DA8A46BAF1C9
:10387000010F05DD009AAAF10101515C302908D041
:10388000B84202DA10F1040F06DA0121CDE9011085
:1038900015E0AAF10101E9E7002805DC04990144DB
:1038A0000491AAEB000102E0411C514500DD8A466B
:1038B0000499401A401C01904FF0004002902007EC
:1038C00004D40198504501DBCDF8048000208DF828
:1038D0004F0002980DF14F07B0F1004F25D02B207B
:1038E0000E9002984FF0020800280CDA4042029035
:1038F0002D200E9007E00A210298FDF7ADFE303131
:10390000029007F8011DB8F10001A8F10108F2DCEE
:1039100002980028EFD1791E0E980870307800F0D8
:10392000200040F0450007F8020D12A8C01B00F16E
:1039300007081498007800B1012000EB0A010198F3
:1039400001EBE07105984144401A401E0590E003E8
:1039500006D45B462146179A059800F05DF80544A9
:103960001498007818B15A46179990476D1CE003D7
:1039700024D55B462146179A059800F04DF805447A
:103980001CE00498002807DBDDE90301884203DD21
:103990000098405C179901E0179930205A469047EB
:1039A000049805F10105401C04900198401E019007
:1039B00004D12E205A46179990476D1CBAF1000188
:1039C000AAF1010ADDDC05E017F8010B5A46179948
:1039D00090476D1CB8F10001A8F10108F4DC5B46CA
:1039E0002146179A0598ABE62D0000002B00000039
:1039F000200000002DE9F041044600251E46174630
:103A0000880404D405E039462020B0476D1C641EAC
:103A1000F9D52846BDE8F0812DE9F041044600259E
:103A20001E469046C80301D5302700E020278804B1
:103A300004D505E041463846B0476D1C641EF9D5F3
:103A40002846BDE8F0810A68531C0B60107070476F
:103A50002DE9F04782460E4617463046F11706EB31
:103A60005171C910C1F1070101F0FF083846F9177B
:103A700007EB5171C910C1F1070101F0FF09304690
:103A8000F11706EB5171C910A6EBC101C1F1070195
:103A9000CCB23846F91707EB5171C910A7EBC10139
:103AA000C1F10701CDB2A8EB090000282DDD414688
:103AB0005046FEF7B5FF0121A140491E0122A24058
:103AC0001143C8B2FFF735FB0AE0A8F1010000F08E
:103AD000FF0841465046FEF7A3FFFF20FFF729FBF2
:103AE00009F101008045F0D149465046FEF798FFA4
:103AF0000121A940C1F1800141F080010122AA40C9
:103B00001143C8B2FFF715FB59E0B8EB090029D102
:103B100041465046FEF784FF601B05D10121A140BC
:103B2000C8B2FFF706FB4AE0601B00280BDD01214D
:103B3000A1400122AA40891A0122A2401143C8B221
:103B4000FFF7F7FA3BE0281B002838DD0121A940E8
:103B50000122A240891A0122AA401143C8B2FFF7EC
:103B6000E8FA2CE049465046FEF75AFF0121A940E9
:103B7000491E0122AA401143C8B2FFF7DAFA0AE04F
:103B8000A9F1010000F0FF0949465046FEF748FF41
:103B9000FF20FFF7CEFA08F101008145F0D1414640
:103BA0005046FEF73DFF0121A140C1F1800141F0E7
:103BB00080010122A2401143C8B2FFF7BAFABDE862
:103BC000F0870000FEF7FAFCFEF738FEFEF7CEFEA7
:103BD000FEF72EFBFFF79EFAFEF7B8F9FEF760F945
:103BE000FEF7A2FE01210248FFF71CF900BFFEE725
:103BF000002C01402DE9F04106460F46FDF720FF5D
:103C0000041E0D4618BF0120284320F00040C0F1DB
:103C10007F6000F1E040C00F0ED0301C18BF0120C3
:103C2000384320F00040C0F17F6000F1E040C00F59
:103C300004BF0120FFF7A8FA20462946BDE8F0811D
:103C40000000000000000000002F0000000007003E
:103C5000070000147F147F1400242A7F2A120062B8
:103C60006408132300364955225000000503000064
:103C700000001C224100000041221C000014083EEC
:103C800008140008083E0808000000A060000008B2
:103C90000808080800006060000000201008040206
:103CA000003E5149453E0000427F400000426151C4
:103CB0004946002141454B31001814127F1000275E
:103CC00045454539003C4A49493000017109050321
:103CD00000364949493600064949291E0000363652
:103CE00000000000563600000008142241000014B5
:103CF0001414141400004122140800020151090692
:103D000000324959513E007C1211127C007F494912
:103D10004936003E41414122007F4141221C007F43
:103D200049494941007F09090901003E4149497A51
:103D3000007F0808087F0000417F410000204041CB
:103D40003F01007F08142241007F40404040007F37
:103D5000020C027F007F0408107F003E4141413E7B
:103D6000007F09090906003E4151215E007F0919C3
:103D700029460046494949310001017F0101003FC0
:103D80004040403F001F2040201F003F4038403F40
:103D900000631408146300070870080700615149A4
:103DA000454300007F41410000552A552A55000037
:103DB00041417F00000402010204004040404040B5
:103DC000000001020400002054545478007F48444D
:103DD000443800384444442000384444487F003884
:103DE0005454541800087E0901020018A4A4A47CAD
:103DF000007F080404780000447D40000040808477
:103E00007D00007F102844000000417F4000007CBE
:103E100004180478007C08040478003844444438CA
:103E200000FC242424180018242418FC007C080416
:103E3000040800485454542000043F444020003CEF
:103E40004040207C001C2040201C003C4030403C76
:103E5000004428102844001CA0A0A07C0044645406
:103E60004C4414141414141400000000000000004A
:103E70000000000000000000000000F8000000004A
:103E8000000000333000000000100C06100C06008B
:103E9000000000000000000040C07840C0784000F2
:103EA000043F04043F040400007088FC0830000054
:103EB000001820FF211E0000F008F000E0180000AC
:103EC00000211C031E211E0000F008887000000065
:103ED0001E2123241927211010160E0000000000B7
:103EE0000000000000000000000000E018040200D4
:103EF000000000071820400000020418E000000045
:103F00000040201807000000404080F08040400042
:103F10000202010F01020200000000F00000000098
:103F20000101011F0101010000000000000000006C
:103F300080B07000000000000000000000000000E1
:103F4000000101010101010100000000000000006A
:103F50000030300000000000000000008060180405
:103F6000006018060100000000E010080810E000E2
:103F7000000F102020100F00001010F800000000AB
:103F80000020203F202000000070080808887000F2
:103F90000030282422213000003008888848300072
:103FA0000018202020110E000000C02010F8000092
:103FB00000070424243F240000F80888880808002B
:103FC0000019212020110E0000E010888818000040
:103FD000000F112020110E0000380808C838080012
:103FE0000000003F00000000007088080888700092
:103FF000001C222121221C0000E010080810E00013
:104000000000312222110F00000000C0C00000009B
:1040100000000030300000000000008000000000C0
:1040200000008060000000000000804020100800B8
:104030000001020408102000404040404040400081
:10404000040404040404040000081020408000005C
:104050000020100804020100007048080808F00061
:104060000000003036010000C030C828E810E00031
:104070000718272423140B000000C038E0000000BC
:10408000203C23020227382008F888888870000026
:10409000203F202020110E00C030080808083800FA
:1040A000071820202010080008F808080810E00071
:1040B000203F202020100F0008F88888E808100012
:1040C000203F20202320180008F88888E8081000E6
:1040D000203F200003000000C0300808083800001E
:1040E00007182020221E020008F808000008F8081F
:1040F000203F210101213F20000808F808080000A6
:104100000020203F2020000000000808F8080800D8
:10411000C08080807F00000008F888C02818080050
:10412000203F20012638200008F808000000000089
:10413000203F20202020300008F8F800F8F8080080
:10414000203F003F003F200008F830C00008F8087A
:10415000203F200007183F00E01008080810E0008A
:104160000F10202020100F0008F808080808F000A1
:10417000203F210101010000E01008080810E000C4
:104180000F18242438504F0008F888888888700059
:10419000203F2000030C30200070880808083800F9
:1041A0000038202121221C00180808F808081800EF
:1041B0000000203F2000000008F808000008F80870
:1041C000001F202020201F000878880000C8380821
:1041D000000007380E010000F80800F80008F80099
:1041E000033C0700073C0300081868808068180833
:1041F00020302C03032C30200838C800C8380800B1
:104200000000203F2000000010080808C8380800FF
:104210002038262120201800000000FE02020200A3
:104220000000007F40404000000C30C00000000053
:10423000000000010638C00000020202FE0000007B
:10424000004040407F000000000004020202040021
:10425000000000000000000000000000000000005E
:104260008080808080808080000202040000000046
:10427000000000000000000000008080808000003E
:104280000019242222223F2008F80080800000002C
:10429000003F112020110E000000008080800000EF
:1042A000000E112020201100000000808088F800FE
:1042B000000E112020103F20000080808080000030
:1042C000001F222222221300008080F08888881894
:1042D0000020203F2020000000008080808080009F
:1042E000006B94949493600008F800808080000034
:1042F000203F210000203F2000809898000000000F
:104300000020203F2020000000000080989800003E
:1043100000C08080807F000008F80000808080005E
:10432000203F24022D302000000808F80000000083
:104330000020203F2020000080808080808080003E
:10434000203F20003F20003F8080008080800000D0
:10435000203F210000203F2000008080808000005E
:10436000001F202020201F0080800080800000008F
:1043700080FFA12020110E000000008080808000BE
:10438000000E112020A0FF808080800080808000AF
:1043900020203F21200001000000808080808000DC
:1043A0000033242424241900008080E08080000051
:1043B0000000001F2020000080800000008080009E
:1043C000001F202020103F208080800000808080FF
:1043D00000010E300806010080800080008080808F
:1043E0000F300C030C300F000080800080808000B4
:1043F0000020312E0E3120008080800000808080DF
:1044000080818E701806010000808080808080008E
:104410000021302C2221300000000000807C0202AC
:1044200000000000003F404000000000FF000000CE
:1044300000000000FF0000000002027C800000007D
:104440000040403F00000000000601010202040499
:104450000000000000000000784400080000002078
:1044600014100000CA1B000890500008141000200F
:10447000042E00007831000812000120050102031B
:104480000404600A060708090204060800018240C5
:104490000420115DDD213BA3227E180000412D7E0A
:1044A000A5412D08200900C000405DDD82E71C31D8
:1044B0001491302011AA2A94126B39460649327C95
:1044C0000CA8118E23082140200521F779311C21E9
:1044D00014A154601195C6B13F461A2B1E58EE37F1
:1044E00035BEB4C53E20A00D63A97138DF089A28F7
:1044F000B7CDC53E78200563A92B1E4C212C200585
:10450000BEB47C0C38A01161AC213B95C6BAF9BA97
:10451000E571383BA737359C201121F766D756D572
:104520003F3D3BA78E23A811C9CA50200961AC7E2C
:1045300018AA2AC1C27C2144A1F020111E3BB50457
:10454000693E9201C83C2403EB3564090821D02060
:10455000056C30060E1C2114A1E46011AE2409176D
:10456000AF37D607882E8D0F7E1E5D1B20A40D242D
:10457000188C1F1E34F10AB3269015082005140B61
:1045800060274C212C20057104FB2A382500A40D3E
:10459000C7FD5A2E9D2C1211FE15E7202C201187E5
:1045A000F05334B2281314480D202602EAE53650A1
:1045B000251820059CE32B397C2144A5A420114E0D
:1045C000D7C53C9320EF198FFB6C2F78D1153E682F
:1045D0002530A40DE2CB0F3F641CC61CB8F2683333
:1045E00074200597C1FB3FAC215C2005F0BCEC3F7B
:1045F000802548A40DA6B8853FD5133D2282E1DB76
:104600003998201140B1AF3D790FDA244DD9423CA1
:104610002EAE423C98256020058EAB823ADC217498
:10462000A5BC2011B1A71236A906CE2915CA4F3F45
:1046300078A66833F42578A40DBCA576303902211C
:104640002C38C3EC3FE02405BCA5CE290C218C20DE
:104650000578A62026C8A81109BAB13FB1A73D2206
:1046600057F976304DB74F3F0420118EABEF19EC60
:10467000F474325EB2153E2EAE9015E024092DB0D2
:104680003F3D40B112113C21A4A9282411A6B8D65F
:10469000072BEC1236C8AADB39F0BC240354296C72
:1046A000A80D97C16EFEDCE7B03734A8E5364C158F
:1046B0003826F56C21BC240578D173F010A811EDD3
:1046C000A579314ED7EDEB6DDF823A99A56C2F704D
:1046D00024119CE33AE352DBB63B99A5FB2A02EA9C
:1046E00019DF282409EDA59A2887F026DB9C21D420
:1046F000A9944411C7FDDFD363D3AF3D34A8E720AD
:10470000710494D040A80F2B1E140B8CCD94CF7243
:104710003EC8AA5D1BB82405241850C8CC21EC243F
:10472000057E1E25C658A8112DB09412AE244AC489
:1047300051C8853F5EB28D0FDC24116C308EC1E212
:10474000C4D43F4DB76409EB35B1C070240909BA30
:1047500046061E3B2CC0FC2504ADC0032011D03EF4
:104760002E019B3F6500363FC9009A3D5B02082D34
:10477000100320055F3C88031C2114AD2403601145
:10478000D939E205023EF701F43BED038E380E07FE
:1047900020AC0D3F373908313DC002463A7E05480E
:1047A00003200592348E0A4C212C20053433B70B9C
:1047B000382D4003AC0DD231DF0C8A3B5104CE368C
:1047C0009D086C032011022F2B0FB23A1A050535F4
:1047D0002B0A932D5010502D58032005212C7311B6
:1047E0007C2144AD740420113129B413FD38AA068C
:1047F0005B31410DB327D214942D7003AC0D3226DA
:10480000EE151F3872077B2FCA0EB403200526232E
:104810002118AC215C20059C213719802D8803AC20
:104820000D0E204B1A5D360109A42BD311D803209D
:1048300011EB1C6C1C7835C709AF295413561B7932
:104840001D982DA0032005BE19841EDC2174ADFC2B
:1048500003201188169120A933540BB1254C16EA78
:10486000149321F42DB803AC0D4A139222BF321ACF
:104870000CA923C41720042405051088240C218CBE
:104880002005610E7E25C82DD003AC0DBB0C712612
:10489000E430A40D891FA71A440420116D094C2887
:1048A000F42F680E721D121CC4073529E02DE80391
:1048B00024051B061A2A3C21A4BD6804241002D832
:1048C0002B0E2EEE0F3519DC1E1C01B22C542DAC14
:1048D00004AC0D72FF882D182DB11011173A208CE1
:1048E0000424051DFC282F6C21BC240573FAF22F2B
:1048F000102D1804AC0DCAF8B830282B3412BF1292
:10490000E722B004241179F536322D2AF4129110E1
:104910003524D2F3EF32282D300424052CF2A333B2
:104920009C21D4ADD4042411E3EEFF343328731456
:104930002E0CC12641EDA535402D4804AC0DA1EB50
:10494000483633273115FA09FE27F804240565E8AF
:104950007E37CC21EC2405CBE61238582D6004AC10
:104960000D32E5A1382F25AB168D05652A1C0524CF
:104970001108E2B0392B24661755038F2B77E030EE
:104980003A702D78042405E9DEAB3AFC2504AD909D
:10499000062811D5DB923B1F22DB18E4FECF2D4FFA
:1049A000DAFD3B142D9004AC0DCDD8643C17219357
:1049B00019ABFCE42E64052805D3D5213D2C251C1C
:1049C00024055CD4783DA02DA804AC0DE8D2C93DE7
:1049D000041F021B3CF8F930880524110CD05C3E02
:1049E000F81DB81B06F6F831A5CE9D3EB82DC004C3
:1049F000280541CDD83E5C2534ADAC05241188CACC
:104A0000403FDD1B201D9FF1DF3332C96B3FD025B6
:104A100040AC0DE1C7913FCE1AD31D6FEFC634D025
:104A20000528054EC5CC3F8C254C24050CC4E13F20
:104A3000E82DF004AC0DCFC2F13FAD18341F16EBDA
:104A40007D36F4051E657405280D9B17E31FEFE8FE
:104A50004B3738BFFF3F002D0805280511BEF83F32
:104A6000BC2564AD18062811D4BBDB3F74153D216D
:104A7000AAE4CF38BFBAC43F182D8C06AC0DAFB92D
:104A8000A73F5F14E8218EE284393C062805A2B7CF
:104A90005D3FEC257C2805A5B6303F302D3805ACB0
:104AA0000DAFB5FD3E34123B2364DED33AF8072840
:104AB00011D5B3883E1D11E22357DC6D3BF2B245A0
:104AC0003E482D50052C0515B2FC3D1C032594AD28
:104AD00084062C1171B05B3DED0E2C254DD8853C24
:104AE000A9AF033D340325A0AC0DE8AEA53CD40D21
:104AF000CF2551D6033DA8062C057BADDA3B4C03F0
:104B000025AC2805D0AC6D3B782D8005BC0C2BACBA
:104B1000FA3AA10B11276DD2E3CC062811F8AA06A8
:104B20003A870AAF2785D0453E6AAA8439902D98E6
:104B3000052C05E3A9FD387C0325C4ADF00628113A
:104B4000EBA8E1375208E728CCCCEB3E7BA84B37EB
:104B5000A82DB005AC0D12A8B13636078129FBCAC5
:104B6000303F14072C0557A76E35AC0325DC28050C
:104B700005A7C634C02DC805BC0CBBA61934FF045C
:104B8000B02A72C79C380728113EA6B232E303450B
:104B90002BBAC5C43F0BA6F831D82DE0052C05E093
:104BA000A53931DC0325F4AD5C072C11A1A5AF2F8D
:104BB000AA016A2C66C2F53F8DA5E42EF4032DF8F8
:104BC00005BC0C81A5152E8E00FA2CCAC0FF8007EB
:104BD0002C0581A56A2C0C04290C2C058DA58F2B86
:104BE0000803100473BEFB48AC0BB02A56FE152E0A
:104BF000B0BDF53FA407100CE0A5E72839FD9F2EB6
:104C000032BCE1902FFE272003100477BBD4A82FDD
:104C100011273C042924ADC807100CBBA62C250184
:104C2000FBAF2F56B99CF02F352454042930BC0C0F
:104C300057A73B23E5F93430F8B76BEC072C051286
:104C4000A83D216C04293C2C057BA83A205003ACDC
:104C50001100B60F3FEBA8341FAEF739315EB5EB4C
:104C60003E140A140CE3A9201D93F6B93122B49D19
:104C7000B02F121C6803140488B372C82F021B9C47
:104C8000042954AD3408180C2BACDB185FF4B23295
:104C9000CDB1E3102FC417B4042960AC0D7BADABCC
:104CA0001645F32C33B5B0783D58082C05E8AE73A3
:104CB00014CC04296C2C05A9AF54139803180428AC
:104CC000AFC588AC0B341213F11934A9AE853C7C06
:104CD00008180C15B2EE0FFBEF8D34B6ADFDD02FDA
:104CE000CA0EB003180441ADB6E82FA40DFC042988
:104CF00084ADA0081C0CAFB5540BCCED6E35F6ABF3
:104D0000D330032F2B0A14052990AC0DA2B701094B
:104D1000B6ECDC3529AB303AC4082C05AFB9AA068D
:104D20002C05299C2C05BFBA7E05E003AC110FAA07
:104D30002B39D4BB51048CEAB136B7A9CF38E80877
:104D40002C1111BEF70178E9183712A9123838BFB3
:104D5000C900F8032C09C5A8B03765C09BFF5C05E6
:104D600029B4AD0C093C11CFC240FD53E7E137F146
:104D7000A77D360CC413FC740519C0AC0D4EC5E6F6
:104D8000FA42E6423874A7A53530092C05E1C78EF2
:104D9000F88C0529CC2C0532C963F72804AC11D353
:104DA000A6533488CA39F623E4FD38A4A6DF335469
:104DB000092C1141CDE6F315E3583950A6EF32A581
:104DC000CEBFF240042C092CA674320CD098F1BC52
:104DD0000529E4AD78092C11E8D24FEFFCE0063A42
:104DE000D3A5F9305CD42DEED40529F0AC0DD3D584
:104DF0000CEDF2DF593AA9A5F22F9C092C05CDD86C
:104E0000CFEAEC0529FC2C054FDAB4E97004AC11AB
:104E100085A55A2ED5DB9AE8E1DDFA3A7FA5CF2D9C
:104E2000C0092C11E9DE6DE6DADC473B7FA5B22C28
:104E300077E059E588042C0985A5212C08E248E48F
:104E40001C062D1403ADE4092C1132E52DE2D1DA54
:104E5000DA3BA9A5652ACBE624E134062DC40AACC9
:104E60000D65E81DE0CED9203CD3A53529080A2CD4
:104E700005A1EB18DE4C062D2C032C0541ED19DDA8
:104E8000B804AC112CA66027E3EE1EDCCDD7A53C00
:104E900050A6C1262C0A2C112CF231DACFD6E43CD4
:104EA000A4A67E25D2F33FD9D0042C09D3A6DA24B8
:104EB00079F551D87C062D4403AD500A2C11CAF85F
:104EC0007FD6D8D45B3D74A7E72273FA9BD5E8045C
:104ED0002D5003AC0D1DFCBBD4DFD3933DF1A79344
:104EE00021740A2C0572FF06D3AC062D5C032C0539
:104EF0001C0131D20005AC11C5A88C1FC70261D1BD
:104F0000F2D1FC3D12A9DC1E980A2C111B06CCCF55
:104F1000FED02D3EB7A9791DC40707CF18052C096F
:104F20000FAAC61C6D0947CEDC062D7403ADBC0A62
:104F30002C11BB0CD4CC1CCF883E29ABA71A610E18
:104F400021CCF4062D8003AC0D051073CB2ECEB111
:104F50003EF6AB3719980D2C054A1324CA0C072DC1
:104F60008C032C05EA1483C94805AC1141AD09171F
:104F70008816E8C857CCFD3EB6AD4C16040B2C1174
:104F8000BE19BEC76ECB203FA9AED214561B31C787
:104F900060052C0928AF1314EB1CA8C63C072DA4F0
:104FA00003AD280B2C110E20A7C5A3C95D3FB5B0DA
:104FB000D3119C212DC554072DB003AC0D2623B968
:104FC000C4C1C8783FCDB150104C0B2C053226E03F
:104FD000C36C072DBC032C05B3277BC39005AC1114
:104FE00088B3060E31291CC303C7A73F22B4410D65
:104FF000700B2C11212C6DC227C6BB3F5EB5B70BC1
:10500000932D1DC2A8052C0900B6F10A022FD3C1A9
:105010009C072DD403AD940B2C11D2314FC176C413
:10502000DB3FF8B79D08343315C1C0052DA40CAC87
:105030000D9234E0C0A1C3E73F56B90E07B80B2C60
:10504000053F3788C0CC072DEC032C058E3864C093
:10505000D805AC1177BBB504D93945C0FEC1F83FBE
:1050600032BCED03DC0B2C115F3C19C030C1FD3F9D
:10507000B0BD5B029A3D0BC0F0052C0973BE9201D6
:10508000D03E03C0FC072D04045E01F90F000000B0
:0400000508000131BD
:00000001FF
