:020000040800F2
:10000000101E002049010008A50C0008AF090008D7
:10001000A10C00081D050008A51400080000000040
:10002000000000000000000000000000A90F000810
:100030006906000800000000590E0008E9100008D9
:100040006301000863010008630100086301000800
:100050006301000863010008A906000863010008A5
:10006000630100086301000863010008210500081E
:1000700063010008630100086301000863010008D0
:1000800063010008630100086301000863010008C0
:1000900063010008630100086301000863010008B0
:1000A00063010008630100086301000863010008A0
:1000B0006301000863010008630100086301000890
:1000C0006301000863010008630100086301000880
:1000D0006301000863010008630100086301000870
:1000E000D5060008630100086301000863010008E9
:1000F0006301000863010008630100086301000850
:10010000630100086301000863010008630100083F
:10011000630100086301000863010008630100082F
:10012000630100086301000863010008630100081F
:10013000DFF810D000F01AF8004800473915000821
:10014000AFF30080101E0020064880470648004795
:10015000FEE7FEE7FEE7FEE7FEE7FEE7FEE7FEE777
:10016000FEE7FEE7ED10000831010008064C074DE0
:1001700006E0E06840F0010394E807009847103477
:10018000AC42F6D3FFF7D8FF7C1500089C15000899
:1001900070B58D1810F8014B14F0030201D110F85E
:1001A000012B231106D110F8013B03E010F8016B7D
:1001B00001F8016B521EF9D1ABB110F8012B04F01C
:1001C0000C048A1A0C2C03D0A2EB84129B1C08E0AE
:1001D00010F8014BA2EB0422F8E712F8014B01F8EA
:1001E000014B5B1EF9D5A942D4D3002070BD21B1CB
:1001F000826842F00102826003E0826822F001021C
:100200008260704721B1826842F48072826003E0AC
:10021000826822F480728260704721B1826842F461
:100220008012826003E0826822F48012826070474C
:10023000014600208A6802F004020AB1012000E0B1
:100240000020704730B502460020002350680F4C54
:1002500020400D790C6844EA0524204350609068E2
:100260000B4C2040D1E902542C434D7944EA45041B
:1002700020439060D06A20F470000C7C641EE4B2CD
:10028000234340EA0350D06230BD0000FFFEF0FF80
:10029000FDF7F1FFF0B504460D4600200021092DC1
:1002A00011DDE068A5F10A0606EB4607072606FA07
:1002B00007F18843A5F10A0606EB460603FA06F1A4
:1002C0000843E0600CE0206905EB4507072606FAC5
:1002D00007F1884305EB450603FA06F10843206160
:1002E000072A0FDA606B561E06EB86071F2606FAF2
:1002F00007F18843561E06EB860605FA06F1084309
:10030000606322E00D2A0FDA206BD61F06EB86070A
:100310001F2606FA07F18843D61F06EB860605FA64
:1003200006F10843206310E0E06AA2F10D0606EB37
:1003300086071F2606FA07F18843A2F10D0606EB91
:10034000860605FA06F10843E062F0BD816841F0D7
:10035000040181607047000000B585B001214802AA
:1003600000F0A8FD002000908DF805000390029099
:1003700001208DF8100000208DF804006946124815
:10038000FFF760FF4FF4404000F068FD07230122B3
:100390000B210D48FFF77EFF01210B48FFF727FFD8
:1003A0000948FFF7D3FF00BF0748FFF741FF0028C8
:1003B000FAD001210448FFF725FF01210248FFF789
:1003C0002CFF05B000BD00000024014000B58BB03B
:1003D0000121084600F04EFD1048009010480190A1
:1003E000002002904FF48060039000200490802051
:1003F00005904000069080000790202008900002A1
:10040000099000200A906946064800F0EEF80121A4
:10041000044800F0D5F80BB000BD00004C240140AA
:100420000C1100200800024008B50121102000F046
:1004300041FD0121102000F03DFD0220ADF800003B
:1004400000208DF803006946054800F025FA0420D5
:10045000ADF800006946024800F01EFA08BD000031
:100460000010014010B5FFF7DFFF00F0DDF8FFF7E7
:10047000ADFFFFF771FF10BD00B587B00121C802C5
:1004800000F018FD0220ADF810000020ADF81200B9
:1004900040F2E730ADF814000020ADF816008DF8FA
:1004A000180004A90E4800F0B9FE6020ADF8000065
:1004B0000120ADF802006420ADF806000020ADF880
:1004C00008006946064800F05DFE0121044800F07E
:1004D00049FE0021024800F039FE07B000BD0000CF
:1004E000002C014008B50121042000F0E3FC182095
:1004F0008DF803004FF48070ADF8000003208DF8F4
:1005000002006946014800F0C7F908BD0008014033
:1005100010B5FFF7E7FFFFF7AFFF10BD00BFFEE725
:100520003EB50024002000900190029000211A485E
:1005300000F046F8022000F035F800F011FC00BF92
:1005400010E0164931F81400C11700EB9161C1F3B6
:100550008711134A1155114931F8140000F0B0FE0B
:10056000601C84B2802CECDB00240BE00B4931F8DA
:100570001400C11700EB9161C1F38711084A1155AE
:10058000601C84B2802CF1DB962000F06FF8012112
:10059000014800F015F83EBD080002400C11002093
:1005A0000C10002000F0805111B10349086001E0F7
:1005B0000249486070470000040402400000024005
:1005C00021B1026842F00102026004E002684FF6C5
:1005D000FE731A40026070471AB103680B43036050
:1005E00002E003688B430360704710B50022026885
:1005F00047F6F0739A430C6A8B6823430C692343D4
:100600004C6923438C692343CC6923434C6A2343BD
:100610008C6A23431A430260CB6843600B68836093
:100620004B68C36010BD000008B50121084600F00A
:1006300021FC4FF4A06000F089FB0B208DF8000036
:1006400001208DF8010000208DF8020001208DF8B6
:100650000300684600F042FB012202210148FFF737
:10066000BBFF08BD080002407047000070B504469B
:100670000C4800F00FFD002508E000BF4FF0E0201F
:10068000006900F480300028F8D06D1CA542F4D336
:100690004FF0E020006920F001004FF0E0210861F8
:1006A00070BD00004019010010B5012000F030F8C5
:1006B00060B10748007818B901200549087002E0C8
:1006C000002003490870012000F01CF810BD000054
:1006D0000410002010B54FF4005000F019F868B174
:1006E0000748007818B901200549087002E0002089
:1006F000034908704FF4005000F004F810BD0000EA
:1007000004100020014908607047000014040140F3
:10071000014600200022074B1B6803EA0102054B3B
:1007200014331B680B4013B10AB1012000E0002014
:100730007047000000040140002123498279002A0B
:100740003AD00A46126803689A430B461A600A1D9B
:10075000126803689A430B1D1A60027911440A68F3
:1007600003681A430A60184A0832126803689A43F9
:10077000154B08331A601A1D126803689A43124B0E
:100780000C331A604279102A0ED11A1F12680368BE
:100790001A430D4B08331A601A1D126803681A4376
:1007A000094B0C331A600DE00749427911440A687D
:1007B00003681A430A6005E0027911440A68036875
:1007C0009A430A6070470000000401400EB5012101
:1007D000052000F06FFB00F066FA0120ADF808007C
:1007E00004208DF80B0002A9194800F055F80021EB
:1007F000084600F031F80120009000208DF8040038
:1008000008208DF8050001208DF806006846FFF7E6
:1008100093FF4FF40050ADF8080004208DF80B0052
:1008200002A90C4800F038F80D21022000F014F85D
:100830004FF40050009000208DF804000C208DF83B
:10084000050001208DF806006846FFF775FF0EBD14
:10085000000801400010014030B500228B071C0F3A
:100860000F2303FA04F20B4B8C1053F824309343FC
:10087000084C8D1044F8253023468C1053F8243052
:100880008C07240F00FA04F42343024C8D1044F823
:10089000253030BD080001402DE9F0410246002519
:1008A0000026002000230024002791F803C00CF04C
:1008B0000F0591F803C00CF0100CBCF1000F03D031
:1008C00091F802C04CEA050591F800C0BCF1000F98
:1008D00031D0146800202BE04FF0010C0CFA00F32B
:1008E000B1F800C00CEA03069E4220D183004FF00D
:1008F0000F0C0CFA03F7BC4305FA03FC4CEA0404A2
:1009000091F803C0BCF1280F06D14FF0010C0CFA8E
:1009100000FCC2F814C00AE091F803C0BCF1480F13
:1009200005D14FF0010C0CFA00FCC2F810C0401CBD
:100930000828D1D31460B1F800C0BCF1FF0F34DD3A
:10094000546800202EE000F1080C4FF0010808FA6E
:100950000CF3B1F800C00CEA03069E4221D18300DB
:100960004FF00F0C0CFA03F7BC4305FA03FC4CEAFA
:10097000040491F803C0BCF1280F05D100F1080C64
:1009800008FA0CF8C2F8148091F803C0BCF1480FC3
:1009900007D100F1080C4FF0010808FA0CF8C2F872
:1009A0001080401C0828CED35460BDE8F08100BF01
:1009B000FEE770B502460024002500230020958A3A
:1009C000138B1B0445EA030626F07F4404EA010664
:1009D0008E4201D1012000E0002070BD21B10288CB
:1009E00042F00102028004E002884FF6FE731A40D2
:1009F0000280704700B585B00121480500F04AFA31
:100A00000121082000F056FA4020ADF80000032034
:100A10008DF802001C208DF8030069461348FFF78B
:100A20003BFF8020ADF8000069461048FFF734FF17
:100A30000020ADF808004BF6FF70ADF80A007820F2
:100A4000ADF80C004FF48060ADF80E000001ADF879
:100A500010000748019001A9064800F043F8012161
:100A60000448FFF7BBFF05B000BD0000000C0140CB
:100A7000801A06000054004021B1028842F48072BE
:100A8000028004E002884FF6FF631A40028070473C
:100A900021B1028842F40072028004E002884FF61D
:100AA000FF531A40028070470CB502460020002315
:100AB0000193009300920B0F019321F07F41019B62
:100AC0001BB1009B1433009303E0090C009B183307
:100AD0000093009B1B680B400BB1012000E000203D
:100AE0000CBD00002DE9F04385B004460D460026FC
:100AF000B1460427DFF8CC80A6884FF6C0700640C8
:100B0000684600F0E7F9DDF808802F48B8FBF0F000
:100B10001FFA80F946EA0906A68020884FF6FE7182
:100B20000840208000262949286888420CD8286877
:100B30004000B8FBF0F087B2042F00DA04273E43F0
:100B400009F10100208427E0E8884BF6FF71884214
:100B500006D1286800EB4000B8FBF0F087B209E04E
:100B6000286800EBC00101EB0010B8FBF0F087B281
:100B700047F48047C7F30B0008B947F0010747F473
:100B8000004006434FF4967009FB00F04FF47A7171
:100B900090FBF1F0401C2084A683208840F00100E7
:100BA000208026884FF6F5300640A88869890843DA
:100BB00006432680A88929890843208105B0BDE81D
:100BC000F083000000127A0040420F00A08601006E
:100BD00012B141F0010102E04FF6FE7319400182AB
:100BE000704701827047000070B504460D4600BF93
:100BF0004FF400311C48FFF757FF0028F8D10121BE
:100C00001948FFF739FF00BF18491748FFF7D1FE11
:100C10000028F9D0002278211348FFF7D9FF00BF40
:100C200013491148FFF7C5FE0028F9D021460E48A8
:100C3000FFF7D7FF00BF0E49891C0B48FFF7B9FE2D
:100C40000028F8D029460848FFF7CBFF00BF084925
:100C5000891C0548FFF7ADFE0028F8D001210248A5
:100C6000FFF716FF70BD00000054004001000300B4
:100C70008200070008B50121082000F01BF94FF49D
:100C80008050ADF8000010208DF8030003208DF88F
:100C9000020069460148FFF7FFFD08BD000C014056
:100CA00000BFFEE7704708B54FF4A06000F04EF8B3
:100CB00006208DF8000000208DF8010002208DF83C
:100CC000020001208DF80300684600F007F8282094
:100CD0008DF80000684600F001F808BD70B50021ED
:100CE00000230F22C47804B3154C246804F4E06494
:100CF000C4F5E064210AC1F10403CA40447804FA4F
:100D000003F184781440214309010E4C0678A15563
:100D1000047804F01F050124AC4005786D11AD0086
:100D200005F1E025C5F8004109E0047804F01F054D
:100D30000124AC40044D0678761145F8264070BD7C
:100D40000CED00E000E400E080E100E00249014336
:100D5000024A1160704700000000FA050CED00E047
:100D600010B5002000F001F810BD70B50646002453
:100D700015E004F1B001C8B200F096FB002000F0CD
:100D800093FB102000F090FB002504E0304600F0BB
:100D900092FB681CC5B2802DF8DB601CC4B2082C25
:100DA000E7DB70BD10B54FF47A70FFF75FFCAE2043
:100DB00000F07AFB202000F077FB102000F074FB9D
:100DC000B02000F071FBC82000F06EFB002000F0A6
:100DD0006BFB102000F068FB402000F065FB8120D9
:100DE00000F062FBFF2000F05FFBA12000F05CFB45
:100DF000A62000F059FBA82000F056FB3F2000F091
:100E000053FBA42000F050FBD32000F04DFB00204A
:100E100000F04AFBD52000F047FBF02000F044FB37
:100E2000D92000F041FB222000F03EFBDA2000F048
:100E30003BFB122000F038FBDB2000F035FB2020CC
:100E400000F032FB8D2000F02FFB142000F02CFB73
:100E5000AF2000F029FB10BD7047000001460020C4
:100E6000034A506820F44040084350607047000037
:100E70000010024029B1064A52690243044B5A61EC
:100E800004E0034A52698243014B5A6170470000F3
:100E90000010024029B1064AD2690243044BDA61CC
:100EA00004E0034AD2698243014BDA6170470000D3
:100EB0000010024029B1064A92690243044B9A612C
:100EC00004E0034A92698243014B9A617047000033
:100ED0000010024030B500210022002400232D4DD7
:100EE0006D6805F00C0121B1042905D0082923D132
:100EF00005E0294D056022E0274D05601FE0254DE6
:100F00006D6805F47012234D6D6805F48034022578
:100F100005EB92421CB9214D554305600BE01D4D78
:100F20006D6805F400351DB11C4D5543056002E0A8
:100F3000194D5543056002E0174D056000BF00BF25
:100F4000144D6D6805F0F0010909154D6B5C0568DD
:100F5000DD4045600F4D6D6805F4E061090A104DF4
:100F60006B5C4568DD4085600A4D6D6805F4605135
:100F7000C90A0B4D6B5C4568DD40C560054D6D6869
:100F800005F44041890B074D6B5CC568B5FBF3F573
:100F9000056130BD0010024000127A0000093D00DA
:100FA0000000002010000020704710B500F002F88B
:100FB00010BD00000CB5002001900090334800687F
:100FC00040F480303149086000BF3048006800F4C8
:100FD000003000900198401C0190009818B90198C9
:100FE000B0F5A06FF1D12948006800F4003010B1CD
:100FF0000120009001E0002000900098012843D1DA
:101000002348006840F01000214908600846006845
:1010100020F0030008600846006840F00200086005
:101020001A484068194948600846406848600846C0
:10103000406840F4806048600846406820F47C10B6
:1010400048600846406840F4E81048600846006878
:1010500040F08070086000BF0C48006800F000702D
:101060000028F9D00948406820F00300074948608B
:101070000846406840F00200486000BF03484068EE
:1010800000F00C000828F9D10CBD0000001002404F
:101090000020024030B50146B1F1807F01D301202C
:1010A00030BD21F07F40401E4FF0E02250615017CC
:1010B0000F22002807DA13071D0E094B00F00F045A
:1010C000241F1D5503E013071C0E064B1C5400BFC4
:1010D00000204FF0E0229061072010610020DFE740
:1010E00018ED00E000E400E07047000010B5134880
:1010F000006840F001001149086008464068104946
:1011000008400E494860084600680E4908400B49EF
:1011100008600846006820F480200860084640689F
:1011200020F4FE0048604FF41F008860FFF73DFF89
:101130004FF000600449086010BD0000001002403C
:101140000000FFF8FFFFF6FE08ED00E021B1028885
:1011500042F00102028004E002884FF6FE731A405A
:101160000280704731B1B0F8442042F40042A0F848
:10117000442005E0B0F84420C2F30E02A0F8442059
:101180007047000070B5002400220023058C4FF644
:10119000FE7635400584028C8388048B4FF68F756C
:1011A0002C40B51E2C400D882C43751E2A400D89FD
:1011B0002A434D882A43144DA8420BD0134DA84210
:1011C00008D0134DA84205D0124DA84202D0124DAE
:1011D000A84213D14FF6F7752A404D892A434FF69E
:1011E000FB752A408D882A434FF6FF652B404FF64A
:1011F000FF552B408D892B43CD892B43838004835E
:10120000CD888586028470BD002C014000340140E9
:101210000040014000440140004801400022028893
:101220001D4B98420ED01D4B98420BD0B0F1804F11
:1012300008D01B4B984205D01A4B984202D01A4B4B
:10124000984204D14FF68F731A404B881A43174BBC
:10125000984207D0164B984204D04FF6FF431A40ED
:10126000CB881A4302808B8883850B8803850A4BC1
:1012700098420BD0094B984208D00E4B984205D0AB
:101280000D4B984202D00D4B984201D10B7A038648
:101290000123838270470000002C0140003401408C
:1012A0000004004000080040000C00400010004016
:1012B000001400400040014000440140004801404B
:1012C00008B502128DF80020C2B28DF8012000216D
:1012D0000DE000BF074A128802F04002002AF9D050
:1012E0001DF80120034B1B1D1A804A1CD1B2022994
:1012F000EFDB08BD0038014021B1828942F4005281
:10130000828104E082894DF6FF731A408281704722
:1013100002460020B1F5007F00D100BF13880B40CA
:101320000BB1012000E00020704700002DE9F047DC
:1013300086B005460E460024A24600BFA1460027FF
:10134000B08900B100BF2F462C8A4CF6FF700440D4
:10135000F08804432C82AC894EF6F3100440B08828
:1013600031890843718908430443AC81AC8A4FF644
:10137000FF400440B0890443AC8201A8FFF7AAFDF6
:101380001F48874202D1DDF810A001E0DDF80CA073
:10139000A88900F4004040B10AEBCA0000EB0A1033
:1013A00031684900B0FBF1F807E00AEBCA0000EB36
:1013B0000A1031688900B0FBF1F86420B8FBF0F046
:1013C00004012009642101FB1089A88900F4004070
:1013D00040B1322000EBC900B0FBF1F000F0070093
:1013E000044308E0322000EB09106421B0FBF1F067
:1013F00000F00F0004432C8106B0BDE8F087000028
:1014000000380140C1F30802828070471FB50121F6
:101410008803FFF74FFD4FF4E13000900020ADF856
:101420000400ADF80600ADF808000C20ADF80A0085
:101430000020ADF80C0069460348FFF777FF012153
:101440000148FFF759FF1FBD0038014008B50121D1
:101450000420FFF72FFD01210420FFF72BFD4FF49F
:101460008060ADF8000004208DF80300694609484B
:10147000FFF712FA4FF40070ADF8000018208DF855
:10148000030003208DF8020069460248FFF704FAC2
:1014900008BD00000008014010B5FFF7D7FFFFF7B7
:1014A000B5FF10BD00BFFEE710B504462146002081
:1014B000FFF79AFB10BD10B5044621464020FFF708
:1014C00093FB10BD014A024900F013B8151500083E
:1014D0000810002002E008C8121F08C1002AFAD133
:1014E00070477047002001E001C1121F002AFBD1A4
:1014F00070472DE9F04116460F460446002503E0EB
:101500003946B047641C6D1C20780028F8D1284665
:10151000BDE8F08170B504460D46E1B20548FFF71D
:1015200071FF00BF80210348FFF7F2FE0028F9D0C9
:10153000204670BD00380140FFF75CFAFFF79AFBC8
:10154000FFF730FCFFF742F9FFF7A6FFFEF7E0FFD9
:10155000FEF788FF05A0FFF7B5FFFFF701FC0121AB
:101560000548FFF7F3FD00BFFEE7000068656C6CFF
:101570006F20776F726C6400002C01409C1500088E
:10158000000000200C10000090010008B4210008A9
:101590000C100020040E0000E414000812000120CA
:1015A000050102030404100B0607080902040608DB
:1015B000004015510420115DDD213BA3227E18005F
:1015C00000412D7EA5412D08200900C000405DDDB1
:1015D00082E71C311491302011AA2A94126B3946EB
:1015E0000649327C0CA8118E23082140200521F7E2
:1015F00079311C2114A154601195C6B13F461A2BB4
:101600001E58EE3735BEB4C53E20A00D63A9713813
:10161000DF089A28B7CDC53E78200563A92B1E4C5C
:10162000212C2005BEB47C0C38A01161AC213B9567
:10163000C6BAF9BAE571383BA737359C201121F7B6
:1016400066D756D53F3D3BA78E23A811C9CA502067
:101650000961AC7E18AA2AC1C27C2144A1F02011E4
:101660001E3BB504693E9201C83C2403EB35640976
:101670000821D020056C30060E1C2114A1E4601155
:10168000AE240917AF37D607882E8D0F7E1E5D1B3F
:1016900020A40D24188C1F1E34F10AB326901508BF
:1016A0002005140B60274C212C20057104FB2A38DF
:1016B0002500A40DC7FD5A2E9D2C1211FE15E72002
:1016C0002C201187F05334B2281314480D20260221
:1016D000EAE53650251820059CE32B397C2144A5EA
:1016E000A420114ED7C53C9320EF198FFB6C2F78A7
:1016F000D1153E682530A40DE2CB0F3F641CC61CFB
:10170000B8F2683374200597C1FB3FAC215C20051B
:10171000F0BCEC3F802548A40DA6B8853FD5133D0D
:101720002282E1DB3998201140B1AF3D790FDA24F4
:101730004DD9423C2EAE423C98256020058EAB82AE
:101740003ADC2174A5BC2011B1A71236A906CE2916
:1017500015CA4F3F78A66833F42578A40DBCA5764A
:10176000303902212C38C3EC3FE02405BCA5CE293A
:101770000C218C200578A62026C8A81109BAB13FF3
:10178000B1A73D2257F976304DB74F3F0420118E57
:10179000ABEF19ECF474325EB2153E2EAE9015E04C
:1017A00024092DB03F3D40B112113C21A4A92824A9
:1017B00011A6B8D6072BEC1236C8AADB39F0BC2428
:1017C0000354296CA80D97C16EFEDCE7B03734A82E
:1017D000E5364C153826F56C21BC240578D173F01C
:1017E00010A811EDA579314ED7EDEB6DDF823A9956
:1017F000A56C2F7024119CE33AE352DBB63B99A50C
:10180000FB2A02EA19DF282409EDA59A2887F02689
:10181000DB9C21D4A9944411C7FDDFD363D3AF3D32
:1018200034A8E720710494D040A80F2B1E140B8C11
:10183000CD94CF723EC8AA5D1BB82405241850C8A9
:10184000CC21EC24057E1E25C658A8112DB094127B
:10185000AE244AC451C8853F5EB28D0FDC24116CA2
:10186000308EC1E2C4D43F4DB76409EB35B1C070CE
:10187000240909BA46061E3B2CC0FC2504ADC00352
:101880002011D03E2E019B3F6500363FC9009A3D96
:101890005B02082D100320055F3C88031C2114AD5A
:1018A00024036011D939E205023EF701F43BED0350
:1018B0008E380E0720AC0D3F373908313DC0024647
:1018C0003A7E054803200592348E0A4C212C2005CF
:1018D0003433B70B382D4003AC0DD231DF0C8A3BCB
:1018E0005104CE369D086C032011022F2B0FB23A03
:1018F0001A0505352B0A932D5010502D580320053D
:10190000212C73117C2144AD740420113129B413AE
:10191000FD38AA065B31410DB327D214942D700314
:10192000AC0D3226EE151F3872077B2FCA0EB4039A
:10193000200526232118AC215C20059C2137198025
:101940002D8803AC0D0E204B1A5D360109A42BD354
:1019500011D8032011EB1C6C1C7835C709AF295432
:1019600013561B791D982DA0032005BE19841EDC7B
:101970002174ADFC03201188169120A933540BB1BA
:10198000254C16EA149321F42DB803AC0D4A13929A
:1019900022BF321A0CA923C417200424050510887D
:1019A000240C218C2005610E7E25C82DD003AC0DA2
:1019B000BB0C7126E430A40D891FA71A4404201122
:1019C0006D094C28F42F680E721D121CC4073529AE
:1019D000E02DE80324051B061A2A3C21A4BD680457
:1019E000241002D82B0E2EEE0F3519DC1E1C01B26E
:1019F0002C542DAC04AC0D72FF882D182DB1101194
:101A0000173A208C0424051DFC282F6C21BC2405CA
:101A100073FAF22F102D1804AC0DCAF8B830282B29
:101A20003412BF12E722B004241179F536322D2A80
:101A3000F41291103524D2F3EF32282D300424050E
:101A40002CF2A3339C21D4ADD4042411E3EEFF3453
:101A5000332873142E0CC12641EDA535402D4804C2
:101A6000AC0DA1EB483633273115FA09FE27F804EF
:101A7000240565E87E37CC21EC2405CBE6123858E6
:101A80002D6004AC0D32E5A1382F25AB168D056510
:101A90002A1C05241108E2B0392B24661755038F40
:101AA0002B77E0303A702D78042405E9DEAB3AFC60
:101AB0002504AD90062811D5DB923B1F22DB18E4EC
:101AC000FECF2D4FDAFD3B142D9004AC0DCDD86424
:101AD0003C17219319ABFCE42E64052805D3D521CE
:101AE0003D2C251C24055CD4783DA02DA804AC0D0C
:101AF000E8D2C93D041F021B3CF8F93088052411C7
:101B00000CD05C3EF81DB81B06F6F831A5CE9D3E04
:101B1000B82DC004280541CDD83E5C2534ADAC05B8
:101B2000241188CA403FDD1B201D9FF1DF3332C9DD
:101B30006B3FD02540AC0DE1C7913FCE1AD31D6F4E
:101B4000EFC634D00528054EC5CC3F8C254C240566
:101B50000CC4E13FE82DF004AC0DCFC2F13FAD184D
:101B6000341F16EB7D36F4051E657405280D9B1792
:101B7000E31FEFE84B3738BFFF3F002D080528056E
:101B800011BEF83FBC2564AD18062811D4BBDB3F5D
:101B900074153D21AAE4CF38BFBAC43F182D8C0676
:101BA000AC0DAFB9A73F5F14E8218EE284393C0643
:101BB0002805A2B75D3FEC257C2805A5B6303F304F
:101BC0002D3805AC0DAFB5FD3E34123B2364DED39A
:101BD0003AF8072811D5B3883E1D11E22357DC6D72
:101BE0003BF2B2453E482D50052C0515B2FC3D1C7C
:101BF000032594AD84062C1171B05B3DED0E2C25B0
:101C00004DD8853CA9AF033D340325A0AC0DE8AE0B
:101C1000A53CD40DCF2551D6033DA8062C057BADA0
:101C2000DA3B4C0325AC2805D0AC6D3B782D800504
:101C3000BC0C2BACFA3AA10B11276DD2E3CC0628D1
:101C400011F8AA063A870AAF2785D0453E6AAA84CA
:101C500039902D98052C05E3A9FD387C0325C4ADEA
:101C6000F0062811EBA8E1375208E728CCCCEB3E70
:101C70007BA84B37A82DB005AC0D12A8B13636079E
:101C80008129FBCA303F14072C0557A76E35AC03DA
:101C900025DC280505A7C634C02DC805BC0CBBA68D
:101CA0001934FF04B02A72C79C380728113EA6B227
:101CB00032E303452BBAC5C43F0BA6F831D82DE05B
:101CC000052C05E0A53931DC0325F4AD5C072C11AA
:101CD000A1A5AF2FAA016A2C66C2F53F8DA5E42EFF
:101CE000F4032DF805BC0C81A5152E8E00FA2CCA24
:101CF000C0FF80072C0581A56A2C0C04290C2C053B
:101D00008DA58F2B0803100473BEFB48AC0BB02AC3
:101D100056FE152EB0BDF53FA407100CE0A5E72830
:101D200039FD9F2E32BCE1902FFE2720031004774F
:101D3000BBD4A82F11273C042924ADC807100CBB25
:101D4000A62C2501FBAF2F56B99CF02F3524540447
:101D50002930BC0C57A73B23E5F93430F8B76BECBE
:101D6000072C0512A83D216C04293C2C057BA83AC0
:101D7000205003AC1100B60F3FEBA8341FAEF7396B
:101D8000315EB5EB3E140A140CE3A9201D93F6B99D
:101D90003122B49DB02F121C6803140488B372C89A
:101DA0002F021B9C042954AD3408180C2BACDB18F3
:101DB0005FF4B232CDB1E3102FC417B4042960AC84
:101DC0000D7BADAB1645F32C33B5B0783D58082CE0
:101DD00005E8AE7314CC04296C2C05A9AF541398F4
:101DE00003180428AFC588AC0B341213F11934A9B9
:101DF000AE853C7C08180C15B2EE0FFBEF8D34B6A7
:101E0000ADFDD02FCA0EB003180441ADB6E82FA423
:101E10000DFC042984ADA0081C0CAFB5540BCCED0F
:101E20006E35F6ABD330032F2B0A14052990AC0D79
:101E3000A2B70109B6ECDC3529AB303AC4082C0551
:101E4000AFB9AA062C05299C2C05BFBA7E05E00374
:101E5000AC110FAA2B39D4BB51048CEAB136B7A907
:101E6000CF38E8082C1111BEF70178E9183712A90C
:101E7000123838BFC900F8032C09C5A8B03765C0AF
:101E80009BFF5C0529B4AD0C093C11CFC240FD534A
:101E9000E7E137F1A77D360CC413FC740519C0AC1B
:101EA0000D4EC5E6FA42E6423874A7A53530092C36
:101EB00005E1C78EF88C0529CC2C0532C963F728BB
:101EC00004AC11D3A6533488CA39F623E4FD38A4F0
:101ED000A6DF3354092C1141CDE6F315E3583950F0
:101EE000A6EF32A5CEBFF240042C092CA674320C0A
:101EF000D098F1BC0529E4AD78092C11E8D24FEF58
:101F0000FCE0063AD3A5F9305CD42DEED40529F0D7
:101F1000AC0DD3D50CEDF2DF593AA9A5F22F9C09EF
:101F20002C05CDD8CFEAEC0529FC2C054FDAB4E915
:101F30007004AC1185A55A2ED5DB9AE8E1DDFA3A9A
:101F40007FA5CF2DC0092C11E9DE6DE6DADC473B19
:101F50007FA5B22C77E059E588042C0985A5212CB2
:101F600008E248E41C062D1403ADE4092C1132E507
:101F70002DE2D1DADA3BA9A5652ACBE624E13406C5
:101F80002DC40AAC0D65E81DE0CED9203CD3A535A3
:101F900029080A2C05A1EB18DE4C062D2C032C0574
:101FA00041ED19DDB804AC112CA66027E3EE1EDC70
:101FB000CDD7A53C50A6C1262C0A2C112CF231DA23
:101FC000CFD6E43CA4A67E25D2F33FD9D0042C0979
:101FD000D3A6DA2479F551D87C062D4403AD500AF6
:101FE0002C11CAF87FD6D8D45B3D74A7E72273FAC8
:101FF0009BD5E8042D5003AC0D1DFCBBD4DFD3935F
:102000003DF1A79321740A2C0572FF06D3AC062D6F
:102010005C032C051C0131D20005AC11C5A88C1F36
:10202000C70261D1F2D1FC3D12A9DC1E980A2C1125
:102030001B06CCCFFED02D3EB7A9791DC40707CF14
:1020400018052C090FAAC61C6D0947CEDC062D7495
:1020500003ADBC0A2C11BB0CD4CC1CCF883E29ABE1
:10206000A71A610E21CCF4062D8003AC0D05107368
:10207000CB2ECEB13EF6AB3719980D2C054A132462
:10208000CA0C072D8C032C05EA1483C94805AC1132
:1020900041AD09178816E8C857CCFD3EB6AD4C16C1
:1020A000040B2C11BE19BEC76ECB203FA9AED214B3
:1020B000561B31C760052C0928AF1314EB1CA8C6AA
:1020C0003C072DA403AD280B2C110E20A7C5A3C9D6
:1020D0005D3FB5B0D3119C212DC554072DB003AC85
:1020E0000D2623B9C4C1C8783FCDB150104C0B2C7C
:1020F000053226E0C36C072DBC032C05B3277BC338
:102100009005AC1188B3060E31291CC303C7A73F45
:1021100022B4410D700B2C11212C6DC227C6BB3F80
:102120005EB5B70B932D1DC2A8052C0900B6F10AA8
:10213000022FD3C19C072DD403AD940B2C11D231A7
:102140004FC176C4DB3FF8B79D08343315C1C005D5
:102150002DA40CAC0D9234E0C0A1C3E73F56B90EDC
:1021600007B80B2C053F3788C0CC072DEC032C0596
:102170008E3864C0D805AC1177BBB504D93945C0D9
:10218000FEC1F83F32BCED03DC0B2C115F3C19C0E3
:1021900030C1FD3FB0BD5B029A3D0BC0F0052C097C
:1021A00073BE9201D03E03C0FC072D04044301001E
:0421B000010000002A
:0400000508000131BD
:00000001FF
