:020000040800F2
:10000000200C002001010008950800081F080008C6
:100010009108000871060008ED0E000800000000BD
:10002000000000000000000000000000C10B0008FC
:10003000C906000800000000910A0008010D000830
:100040001B0100081B0100081B0100081B01000820
:100050001B0100081B0100081B0100081B01000810
:100060001B0100081B0100081B0100081B01000800
:100070001B0100081B0100081B0100081B010008F0
:100080001B0100081B0100081B0100081B010008E0
:100090001B0100081B0100081B0100081B010008D0
:1000A0001B0100081B0100081B0100081B010008C0
:1000B0001B0100081B0100081B0100081B010008B0
:1000C0001B0100081B0100081B0100081B010008A0
:1000D0001B0100081B0100081B0100081B01000890
:1000E0001B0100081B0100081B010008DFF80CD0F1
:1000F00000F01EF9004800470D120008200C0020F7
:100100000648804706480047FEE7FEE7FEE7FEE7B1
:10011000FEE7FEE7FEE7FEE7FEE7FEE7050D000867
:10012000ED0000082DE9FE4F81EA030404F00044CD
:1001300021F0004100944FF0000B23F0004350EAFF
:1001400001045ED052EA03045BD0C3F30A54C1F346
:100150000A552C44A4F2F3340194A0FB0254C1F3D9
:10016000130141F48011C3F3130343F4801301FB23
:10017000024400FB034E840A970A44EA815447EA8A
:100180008357A4FB076802958D0A05FB07854FEA94
:10019000932C04FB0C542705029D4FEA065847EAAE
:1001A0001637B5EB08056EEB070C870E920E47EA83
:1001B000811742EA8312A7FB0201B6EB0B0164EB45
:1001C00000042B0D43EA0C335E1844EB1C50DA4656
:1001D0005146E7FB0201C5F313044FEA0B3343EA30
:1001E00014534FEA0432019C43EA0603A4F10C04C1
:1001F0000294009CCDE900B400F04BF803B0BDE8D8
:10020000F08F00200146F9E70EB540F2334102912C
:100210000021CDE900110A460B4600F03AF803B080
:1002200000BDC1F30A5210B5C1F3130140F2FF3310
:1002300041F480119A4201DA002010BD40F23343AC
:100240009A42A2F2334203DC524200F003F810BD9E
:10025000904010BD202A04DB203A21FA02F0002150
:10026000704721FA02F3D040C2F1200291400843C6
:100270001946704710B5141E73F1000408DA401CCB
:1002800041F1000192185B411A4301D120F00100B5
:1002900010BD2DE9F04D92469B4611B1B1FA81F2A5
:1002A00002E0B0FA80F22032904600F053F80446A3
:1002B0000F4640EA0A0041EA0B0153465A460843FA
:1002C00013D0114653EA010019D0C8F1400250463C
:1002D000FFF7C0FF05460E4650465946424600F01D
:1002E00039F8084305D0012004E020463946BDE82E
:1002F000F08D0020054346EAE0762C4337430A9808
:100300006305E40AA0EB08000022FD0A44EA475412
:100310000A3002D500200146E9E7010510196941BC
:10032000DDE9084500196941BDE8F04DA2E700008C
:10033000064C074D06E0E06840F0010394E8070032
:1003400098471034AC42F6D3FFF7D4FEC01A000829
:10035000E01A0008202A04DB203A00FA02F100200B
:1003600070479140C2F1200320FA03F319439040F3
:10037000704770B58C1810F8015B15F0070301D1B8
:1003800010F8013B2A1106D110F8012B03E010F8F8
:10039000016B01F8016B5B1EF9D12B0705D400231B
:1003A000521E0DD401F8013BFAE710F8013BCB1ABD
:1003B000921C03E013F8015B01F8015B521EF9D5B2
:1003C000A142D8D3002070BD21B1826842F0010261
:1003D000826003E0826822F001028260704721B1EE
:1003E000826842F48072826003E0826822F4807244
:1003F00082607047014600208A6802F004020AB158
:10040000012000E00020704730B5024600200023A4
:1004100050680F4C20400D790C6844EA05242043B5
:10042000506090680B4C2040D1E902542C434D7928
:1004300044EA450420439060D06A20F470000C7CAC
:10044000641EE4B2234340EA0350D06230BD000092
:10045000FFFEF0FFFDF7F1FFF0B504460D4600206A
:100460000021092D11DDE068A5F10A0606EB46071B
:10047000072606FA07F18843A5F10A0606EB4606A9
:1004800003FA06F10843E0600CE0206905EB45073C
:10049000072606FA07F1884305EB450603FA06F13D
:1004A00008432061072A0FDA606B561E06EB8607A9
:1004B0001F2606FA07F18843561E06EB860605FA44
:1004C00006F10843606322E00D2A0FDA206BD61F85
:1004D00006EB86071F2606FA07F18843D61F06EBB0
:1004E000860605FA06F10843206310E0E06AA2F1EF
:1004F0000D0606EB86071F2606FA07F18843A2F1D0
:100500000D0606EB860605FA06F10843E062F0BD2B
:1005100021B1826842F4A002826003E0826822F482
:10052000A00282607047816841F0040181607047D9
:1005300000B585B00121480200F0C8FA0020009003
:1005400001208DF80500002003904FF460200290F8
:1005500007208DF8100000208DF80400694612482D
:10056000FFF752FF4FF4004000F094FA04230122F9
:1005700007210D48FFF770FF01210B48FFF724FF0B
:100580000948FFF7D0FF00BF0748FFF733FF0028F7
:10059000FAD001210448FFF722FF01210248FFF7AA
:1005A000B7FF05B000BD00000024014000B58BB0CE
:1005B0000121084600F07AFA0F4800900F48019098
:1005C00000200290012003900020049005904FF439
:1005D000807006908000079020200890000209900B
:1005E00000200A906946064800F050F801210448AE
:1005F00000F040F80BB000BD4C2401401C0400206A
:100600000800024008B50121042000F05FFA8020B4
:10061000ADF8000000208DF803006946014800F0A5
:1006200073F808BD0008014010B5FFF7EBFFFFF7B6
:10063000BDFFFFF77DFF10BD0146C21700EB5272F0
:10064000D210C2F10702094B1A70C21700EB5272A6
:10065000D210A0EBC202C2F107025A7019464A78C2
:10066000012191401A469170704700001504002046
:1006700000BFFEE721B1026842F00102026004E01F
:1006800002684FF6FE731A400260704710B50022F0
:10069000026847F6F0739A430C6A8B6823430C692F
:1006A00023434C6923438C692343CC6923434C6A1D
:1006B00023438C6A23431A430260CB6843600B6870
:1006C00083604B68C36010BD7047000070B504467E
:1006D0000C4800F0EBFA002508E000BF4FF0E020E6
:1006E000006900F480300028F8D06D1CA542F4D3D6
:1006F0004FF0E020006920F001004FF0E021086198
:1007000070BD0000401901002DE9F04102460025AE
:100710000026002000230024002791F803C00CF0DD
:100720000F0591F803C00CF0100CBCF1000F03D0C2
:1007300091F802C04CEA050591F800C0BCF1000F29
:1007400031D0146800202BE04FF0010C0CFA00F3BC
:10075000B1F800C00CEA03069E4220D183004FF09E
:100760000F0C0CFA03F7BC4305FA03FC4CEA040433
:1007700091F803C0BCF1280F06D14FF0010C0CFA20
:1007800000FCC2F814C00AE091F803C0BCF1480FA5
:1007900005D14FF0010C0CFA00FCC2F810C0401C4F
:1007A0000828D1D31460B1F800C0BCF1FF0F34DDCC
:1007B000546800202EE000F1080C4FF0010808FA00
:1007C0000CF3B1F800C00CEA03069E4221D183006D
:1007D0004FF00F0C0CFA03F7BC4305FA03FC4CEA8C
:1007E000040491F803C0BCF1280F05D100F1080CF6
:1007F00008FA0CF8C2F8148091F803C0BCF1480F55
:1008000007D100F1080C4FF0010808FA0CF8C2F803
:100810001080401C0828CED35460BDE8F08100BF92
:10082000FEE770B505460C4600F0AAFC782000F003
:100830007DFC00F0CDFC00B110E0284600F076FC15
:1008400000F0C6FC00B109E0204600F06FFC00F0AB
:10085000BFFC00B102E000F0ABFC00BF00F0A8FC60
:1008600070BD000008B50121082000F02FF94FF4F9
:100870008050ADF8000010208DF8030003208DF8A3
:10088000020069460148FFF73FFF08BD000C014028
:1008900000BFFEE77047000070B500240CE00025A3
:1008A00006E00020074901EBC4114855681CC5B299
:1008B000802DF6DB601CC4B2082CF0DB00F026FBB8
:1008C00070BD00002004002010B500F015FC4FF4AE
:1008D0007A70FFF7FBFEAE2000F00AFB202000F04C
:1008E00007FB102000F004FBB02000F001FBC82043
:1008F00000F0FEFA002000F0FBFA102000F0F8FAF9
:10090000402000F0F5FA812000F0F2FAFF2000F01C
:10091000EFFAA12000F0ECFAA62000F0E9FAA820F6
:1009200000F0E6FA3F2000F0E3FAA42000F0E0FA3D
:10093000D32000F0DDFA002000F0DAFAD52000F034
:10094000D7FAF02000F0D4FAD92000F0D1FA222012
:1009500000F0CEFADA2000F0CBFA122000F0C8FA4C
:10096000DB2000F0C5FA202000F0C2FA8D2000F054
:10097000BFFA142000F0BCFAAF2000F0B9FA10BDA5
:1009800070B505460C4605F1B001C8B200F0B0FAEA
:1009900004F00F0000F0ACFA102141EA141000F04E
:1009A000A7FA70BD2DE9F04705460F4690469A46D6
:1009B0004FF0000900240026BAF1010F03D0BAF16C
:1009C000020F5DD125E01FE018F80600203800F086
:1009D000FF097E2D02DD0025781CC7B22946384666
:1009E000FFF7CEFF002409E009EB4901264A02EB9C
:1009F0004101085D00F083FA601CC4B2062CF3DBF1
:100A0000A81DC5B2701CC6B218F806000028DBD1BC
:100A100036E030E018F80600203800F0FF09782DA5
:100A200002DD0025781CC7B229463846FFF7A8FF2B
:100A3000002407E004EB0911144A505C00F05FFA4F
:100A4000601CC4B2082CF5DB791CC8B22946FFF73C
:100A500097FF002408E004EB091108310B4A505CB1
:100A600000F04DFA601CC4B2082CF4DB05F108005C
:100A7000C5B2701CC6B218F806000028CAD100BF63
:100A800000BFBDE8F0870000A8120008D0140008DD
:100A90007047000001460020034A506820F440409F
:100AA00008435060704700000010024029B1064A18
:100AB00052690243044B5A6104E0034A526982437B
:100AC000014B5A61704700000010024029B1064AEC
:100AD00092690243044B9A6104E0034A926982439B
:100AE000014B9A61704700000010024030B50021B0
:100AF0000022002400232D4D6D6805F00C0121B16A
:100B0000042905D0082923D105E0294D056022E0FC
:100B1000274D05601FE0254D6D6805F47012234DCB
:100B20006D6805F48034022505EB92421CB9214D15
:100B3000554305600BE01D4D6D6805F400351DB192
:100B40001C4D5543056002E0194D5543056002E018
:100B5000174D056000BF00BF144D6D6805F0F00132
:100B60000909154D6B5C0568DD4045600F4D6D68EA
:100B700005F4E061090A104D6B5C4568DD40856055
:100B80000A4D6D6805F46051C90A0B4D6B5C4568F0
:100B9000DD40C560054D6D6805F44041890B074D8A
:100BA0006B5CC568B5FBF3F5056130BD0010024014
:100BB00000127A0000093D00000000201000002013
:100BC000704710B500F002F810BD00000CB5002011
:100BD000019000903348006840F48030314908604B
:100BE00000BF3048006800F4003000900198401CBD
:100BF0000190009818B90198B0F5A06FF1D129487B
:100C0000006800F4003010B10120009001E00020E5
:100C100000900098012843D12348006840F010005C
:100C2000214908600846006820F003000860084673
:100C3000006840F0020008601A484068194948609E
:100C40000846406848600846406840F48060486054
:100C50000846406820F47C1048600846406840F42C
:100C6000E81048600846006840F08070086000BFE7
:100C70000C48006800F000700028F9D0094840686E
:100C800020F00300074948600846406840F0020031
:100C9000486000BF0348406800F00C000828F9D104
:100CA0000CBD0000001002400020024030B501469B
:100CB000B1F1807F01D3012030BD21F07F40401E83
:100CC0004FF0E022506150170F22002807DA130777
:100CD0001D0E094B00F00F04241F1D5503E01307E0
:100CE0001C0E064B1C5400BF00204FF0E022906108
:100CF000072010610020DFE718ED00E000E400E0CD
:100D00007047000010B51348006840F00100114919
:100D1000086008464068104908400E494860084687
:100D200000680E4908400B4908600846006820F436
:100D3000802008600846406820F4FE0048604FF4B8
:100D40001F008860FFF73DFF4FF000600449086016
:100D500010BD0000001002400000FFF8FFFFF6FE8B
:100D600008ED00E021B1828942F40052828104E062
:100D700082894DF6FF731A40828170472DE9F04752
:100D800086B005460E460024A24600BFA1460027B5
:100D9000B08900B100BF2F462C8A4CF6FF7004408A
:100DA000F08804432C82AC894EF6F3100440B088DE
:100DB00031890843718908430443AC81AC8A4FF6FA
:100DC000FF400440B0890443AC8201A8FFF78EFEC7
:100DD0001F48874202D1DDF810A001E0DDF80CA029
:100DE000A88900F4004040B10AEBCA0000EB0A10E9
:100DF00031684900B0FBF1F807E00AEBCA0000EBEC
:100E00000A1031688900B0FBF1F86420B8FBF0F0FB
:100E100004012009642101FB1089A88900F4004025
:100E200040B1322000EBC900B0FBF1F000F0070048
:100E3000044308E0322000EB09106421B0FBF1F01C
:100E400000F00F0004432C8106B0BDE8F0870000DD
:100E5000003801401FB501218803FFF737FE4FF42A
:100E6000E13000900020ADF80400ADF80600ADF8C8
:100E700008000C20ADF80A000020ADF80C0069460F
:100E80000348FFF77BFF01210148FFF76BFF1FBD00
:100E90000038014008B501210420FFF717FE0121A9
:100EA0000420FFF713FE4FF48060ADF8000004202B
:100EB0008DF8030069460948FFF726FC4FF40070DF
:100EC000ADF8000018208DF8030003208DF8020013
:100ED00069460248FFF718FC08BD00000008014001
:100EE00010B5FFF7D7FFFFF7B5FF10BD00BFFEE756
:100EF00010B5044621460020FFF793FC10BD10B545
:100F0000044621464020FFF78CFC10BD70B500243C
:100F100011E000212046FFF733FD002507E00749D7
:100F200001EBC411485DFFF7EAFF681CC5B2802DD4
:100F3000F5DB601CC4B2082CEBDB70BD2004002084
:100F400002E008C8121F08C1002AFAD17047704792
:100F5000002001E001C1121F002AFBD170472DE9DA
:100F6000F05F83460E4617463046F11706EB517187
:100F7000C910C1F1070101F0FF083846F91707EB66
:100F80005171C910C1F1070101F0FF093046F11795
:100F900006EB5171C910A6EBC101C1F10701CCB23A
:100FA0003846F91707EB5171C910A7EBC101C1F120
:100FB0000701CDB2A8EB090000282DDD59464046B7
:100FC000FFF7DEFC0121A140491E0122A24011438E
:100FD000C8B2FFF794FF0AE0A8F1010000F0FF0893
:100FE00059464046FFF7CCFCFF20FFF788FF09F188
:100FF00001008045F0D159464846FFF7C1FC012168
:10100000A940C1F1800141F080010122AA401143B1
:10101000C8B2FFF774FF59E0B8EB090029D159466F
:101020004046FFF7ADFC601B05D10121A140C8B2CD
:10103000FFF765FF4AE0601B00280BDD0121A1409E
:101040000122AA40891A0122A2401143C8B2FFF727
:1010500056FF3BE0281B002838DD0122AA40012171
:10106000A140511A0122AA401143C8B2FFF747FF1D
:101070002CE059464846FFF783FC0121A940491E50
:101080000122AA401143C8B2FFF739FF0AE0A9F1D3
:10109000010000F0FF0959464846FFF771FCFF20A8
:1010A000FFF72DFF08F101008145F0D15946404678
:1010B000FFF766FC0121A140C1F1800141F08001F0
:1010C0000122A2401143C8B2FFF719FF4FF0000AF6
:1010D0000CE00BF10100C1B25046FFF751FC0020BB
:1010E000FFF70DFF0AF1010000F0FF0ABAF1080F47
:1010F000EFDBBDE8F09F000008B501210820FFF7F5
:10110000E5FCC020ADF8000003208DF8020014209B
:101110008DF8030069460348FFF7F6FA00F048F837
:1011200008BD0000000C01407047000070B5044687
:10113000002520E004F0800018B180200F490860ED
:1011400003E080200D49091D0860FFF7EDFF4020F6
:101150000A490860FFF7E8FF40200849091D0860B8
:10116000072D02D18020091F08606006040EFFF7DA
:10117000DBFF681CC5B2082DDCDB70BD100C014024
:1011800010B580200949086040200860FFF7CCFFB7
:1011900080200649091D0860FFF7C6FF402003496B
:1011A000091D0860FFF7C0FF10BD0000100C0140D2
:1011B00010B58020054908604020091F0860FFF72E
:1011C000B3FF80200149091F086010BD140C0140C5
:1011D00010B580200C490860FFF7A6FF40200A499F
:1011E0000860FFF7A1FF08480838006800F0800099
:1011F00008B1012400E0002440200349091D0860D3
:10120000FFF792FF204610BD100C01404FF0000A7E
:10121000D146FFF727FBFFF763FEFFF755FBFFF70C
:1012200003FA1D480088FEF7EFFF07461B4A1C4BD8
:10123000FEF778FF0546FEF7F4FF00F0FF0B584677
:10124000FFF7FAF9FFF728FB012316A20021184641
:10125000FFF7A8FB1FE000241BE00F480088FEF703
:10126000D3FF05460D4A0E4BFEF75CFF0746FEF71F
:10127000D8FF00F0FF094A4651462046FFF76FFEAF
:10128000CA46601CC11700EB5161C911A0EBC11126
:10129000CCB2802CE1DBDEE71C040020DEAB56265E
:1012A000FC528F3F310000000000000000000000F1
:1012B000002F000000000700070000147F147F14B7
:1012C00000242A7F2A12006264081323003649553D
:1012D000225000000503000000001C224100000015
:1012E00041221C000014083E08140008083E0808AB
:1012F000000000A060000008080808080000606006
:101300000000002010080402003E5149453E000044
:10131000427F4000004261514946002141454B3126
:10132000001814127F10002745454539003C4A49F2
:101330004930000171090503003649494936000664
:101340004949291E000036360000000056360000CC
:101350000008142241000014141414140000412247
:10136000140800020151090600324959513E007C1F
:101370001211127C007F49494936003E4141412209
:10138000007F4141221C007F49494941007F0909F2
:101390000901003E4149497A007F0808087F0000A2
:1013A000417F4100002040413F01007F081422415D
:1013B000007F40404040007F020C027F007F040815
:1013C000107F003E4141413E007F09090906003E71
:1013D0004151215E007F091929460046494949319A
:1013E0000001017F0101003F4040403F001F2040BD
:1013F000201F003F4038403F00631408146300077B
:101400000870080700615149454300007F414100D1
:1014100000552A552A55000041417F000004020171
:10142000020400404040404000000102040000204F
:1014300054545478007F484444380038444444208D
:1014400000384444487F00385454541800087E093A
:1014500001020018A4A4A47C007F08040478000002
:10146000447D4000004080847D00007F10284400BF
:101470000000417F4000007C04180478007C0804D0
:10148000047800384444443800FC2424241800180C
:10149000242418FC007C08040408004854545420F8
:1014A00000043F444020003C4040207C001C204081
:1014B000201C003C4030403C004428102844001CC4
:1014C000A0A0A07C004464544C44141414141414BC
:1014D000000000000000000000000000000000000C
:1014E000000000F8000000000000003330000000A1
:1014F00000100C06100C06000000000000000000A8
:1015000040C07840C0784000043F04043F04040019
:10151000007088FC08300000001820FF211E000029
:10152000F008F000E018000000211C031E211E003E
:1015300000F00888700000001E21232419272110C4
:1015400010160E0000000000000000000000000067
:10155000000000E01804020000000007182040000E
:1015600000020418E00000000040201807000000FE
:10157000404080F0804040000202010F0102020062
:10158000000000F0000000000101011F0101010046
:10159000000000000000000080B0700000000000AB
:1015A0000000000000000000000101010101010134
:1015B00000000000000000000030300000000000CB
:1015C00000000000806018040060180601000000A0
:1015D00000E010080810E000000F102020100F009D
:1015E000001010F8000000000020203F2020000024
:1015F000007008080888700000302824222130007C
:1016000000300888884830000018202020110E0083
:101610000000C02010F8000000070424243F24002C
:1016200000F80888880808000019212020110E0001
:1016300000E0108888180000000F112020110E0013
:1016400000380808C83808000000003F000000000B
:101650000070880808887000001C222121221C00CC
:1016600000E010080810E0000000312222110F00F5
:10167000000000C0C000000000000030300000008A
:1016800000000080000000000000806000000000FA
:101690000000804020100800000102040810200013
:1016A000404040404040400004040404040404005E
:1016B00000081020408000000020100804020100F3
:1016C000007048080808F0000000003036010000F3
:1016D000C030C828E810E0000718272423140B00A6
:1016E0000000C038E0000000203C23020227382020
:1016F00008F8888888700000203F202020110E0004
:10170000C0300808080838000718202020100800FA
:1017100008F808080810E000203F202020100F00E3
:1017200008F88888E8081000203F202023201800AF
:1017300008F88888E8081000203F20000300000017
:10174000C03008080838000007182020221E0200B8
:1017500008F808000008F808203F210101213F2077
:10176000000808F8080800000020203F20200000A2
:1017700000000808F8080800C08080807F00000092
:1017800008F888C028180800203F200126382000CB
:1017900008F8080000000000203F20202020300032
:1017A00008F8F800F8F80800203F003F003F20004C
:1017B00008F830C00008F808203F200007183F0054
:1017C000E01008080810E0000F10202020100F0083
:1017D00008F808080808F000203F21010101000076
:1017E000E01008080810E0000F18242438504F00BB
:1017F00008F8888888887000203F2000030C30207B
:1018000000708808080838000038202121221C00B8
:10181000180808F8080818000000203F2000000001
:1018200008F808000008F808001F202020201F00EA
:101830000878880000C83808000007380E0100004A
:10184000F80800F80008F800033C0700073C030014
:10185000081868808068180820302C03032C30207A
:101860000838C800C83808000000203F20000000E9
:1018700010080808C8380800203826212020180041
:10188000000000FE020202000000007F4040400015
:10189000000C30C000000000000000010638C0004D
:1018A00000020202FE000000004040407F000000F5
:1018B000000004020202040000000000000000001A
:1018C0000000000000000000808080808080808018
:1018D0000002020400000000000000000000000000
:1018E00000008080808000000019242222223F20F6
:1018F00008F8008080000000003F112020110E0039
:101900000000008080800000000E112020201100C7
:10191000000000808088F800000E112020103F2079
:101920000000808080800000001F222222221300FD
:10193000008080F0888888180020203F2020000048
:101940000000808080808000006B949494936000FD
:1019500008F8008080800000203F210000203F2008
:1019600000809898000000000020203F2020000008
:10197000000000809898000000C08080807F0000F8
:1019800008F8000080808000203F24022D302000D5
:10199000000808F8000000000020203F2020000080
:1019A0008080808080808000203F20003F20003F9A
:1019B0008080008080800000203F210000203F20A8
:1019C0000000808080800000001F202020201F0059
:1019D000808000808000000080FFA12020110E0088
:1019E0000000008080808000000E112020A0FF8079
:1019F000808080008080800020203F212000010026
:101A0000000080808080800000332424242419007A
:101A1000008080E0808000000000001F2020000087
:101A20008080000000808000001F202020103F20C8
:101A3000808080000080808000010E300806010058
:101A400080800080008080800F300C030C300F00FD
:101A500000808000808080000020312E0E31200028
:101A6000808080000080808080818E701806010058
:101A700000808080808080000021302C2221300076
:101A800000000000807C020200000000003F404097
:101A900000000000FF00000000000000FF00000048
:101AA0000002027C800000000040403F0000000077
:101AB0000006010102020404000000000000000012
:101AC000E01A000800000020200400007203000853
:101AD000041C00082004002000080000500F00082B
:101AE000412D010203040420090607080902040627
:101AF00008100A03050911FF118905C312E012F04D
:101B000072F8073D4428FF11AA44700B8301384442
:101B10008292927401831E7C44C7017D0199056203
:101B2000FF9A0102818A010B013669419949FA0144
:101B300001A12A4001212A6D01212A6001791501A4
:101B4000642ADB010915072ADA01212AD801212A92
:101B5000C0010915072A800101352A060109180765
:101B60001CE66620076A86157A861C2A8601180AF2
:101B700080808686068686C0C00C0E1C0606D03085
:101B8000764D2907013113601C12FE130102100962
:101B9000C41820029E63B20E1DFF8181FFF24440F3
:101BA000300F12FF180923EAAABFAAEA033F0B016C
:101BB0002DBC808080080115240E0C082A010131FB
:101BC00049041D81808081021901B91706110101A4
:101BD000090C0E0A14C0012178081E214040502132
:101BE0005E08012A4DFFFFC1C10409232DB81580ED
:101BF000FCF3EFF3FC80FF80EEEEEEF5FBFF9CBE06
:041C0000B6B6883AB2
:04000005080000ED02
:00000001FF
