:020000040800F2
:10000000180A002001010008F50700087F07000812
:10001000F1070008E1030008190E000800000000C5
:10002000000000000000000000000000ED0A0008D1
:100030003904000800000000BD0900082D0C00086C
:100040001B0100081B0100081B0100081B01000820
:100050001B0100081B010008790400081B010008AF
:100060001B0100081B0100081B0100081B01000800
:100070001B0100081B0100081B0100081B010008F0
:100080001B0100081B0100081B0100081B010008E0
:100090001B0100081B0100081B0100081B010008D0
:1000A0001B0100081B0100081B0100081B010008C0
:1000B0001B0100081B0100081B0100081B010008B0
:1000C0001B0100081B0100081B0100081B010008A0
:1000D0001B0100081B0100081B0100081B01000890
:1000E000A50400081B0100081B010008DFF80CD064
:1000F00000F018F80048004749110008180A0020CD
:100100000648804706480047FEE7FEE7FEE7FEE7B1
:10011000FEE7FEE7FEE7FEE7FEE7FEE7310C00083C
:10012000ED000008064C074D06E0E06840F00103D2
:1001300094E8070098471034AC42F6D3FFF7DAFF93
:10014000081200082812000821B1826842F001025A
:10015000826003E0826822F001028260704721B170
:10016000826842F48072826003E0826822F48072C6
:1001700082607047014600208A6802F004020AB1DA
:10018000012000E00020704730B502460020002327
:1001900050680F4C20400D790C6844EA0524204338
:1001A000506090680B4C2040D1E902542C434D79AB
:1001B00044EA450420439060D06A20F470000C7C2F
:1001C000641EE4B2234340EA0350D06230BD000015
:1001D000FFFEF0FFFDF7F1FFF0B504460D460020ED
:1001E0000021092D11DDE068A5F10A0606EB46079E
:1001F000072606FA07F18843A5F10A0606EB46062C
:1002000003FA06F10843E0600CE0206905EB4507BE
:10021000072606FA07F1884305EB450603FA06F1BF
:1002200008432061072A0FDA606B561E06EB86072B
:100230001F2606FA07F18843561E06EB860605FAC6
:1002400006F10843606322E00D2A0FDA206BD61F07
:1002500006EB86071F2606FA07F18843D61F06EB32
:10026000860605FA06F10843206310E0E06AA2F171
:100270000D0606EB86071F2606FA07F18843A2F152
:100280000D0606EB860605FA06F10843E062F0BDAE
:1002900021B1826842F4A002826003E0826822F405
:1002A000A00282607047816841F00401816070475C
:1002B00000B585B00121480200F09EFB00200090AF
:1002C00001208DF80500002003904FF4602002907B
:1002D00002208DF8100001208DF8040069461548B1
:1002E000FFF752FF4FF4004000F06AFB07230122A2
:1002F0000B211048FFF770FF072302220C210D4845
:10030000FFF76AFF01210B48FFF71EFF0948FFF7BF
:10031000CAFF00BF0748FFF72DFF0028FAD00121D0
:100320000448FFF71CFF01210248FFF7B1FF05B0A9
:1003300000BD00000024014000B58BB0012108463B
:1003400000F04AFB104800901048019000200290F5
:100350004FF48070039000200490802005904000AE
:10036000069080000790202008900002099000204D
:100370000A906946064800F041F80121044800F05F
:1003800031F80BB000BD00004C24014018040020DF
:100390000800024008B50121102000F02DFB0121CA
:1003A000102000F029FB0220ADF8000000208DF89D
:1003B00003006946054800F057F90420ADF8000035
:1003C0006946024800F050F908BD000000100140E5
:1003D00010B5FFF7DFFFFFF7AFFFFFF769FF10BDB5
:1003E00000BFFEE721B1026842F00102026004E0B2
:1003F00002684FF6FE731A400260704710B5002283
:10040000026847F6F0739A430C6A8B6823430C69C1
:1004100023434C6923438C692343CC6923434C6AAF
:1004200023438C6A23431A430260CB6843600B6802
:1004300083604B68C36010BD7047000070B5044610
:100440000C4800F0C9FB002508E000BF4FF0E02099
:10045000006900F480300028F8D06D1CA542F4D368
:100460004FF0E020006920F001004FF0E02108612A
:1004700070BD00004019010010B5012000F030F8F7
:1004800060B10748007818B901200549087002E0FA
:10049000002003490870012000F01CF810BD000086
:1004A0001400002010B54FF4005000F019F868B1A6
:1004B0000748007818B901200549087002E00020BB
:1004C000034908704FF4005000F004F810BD00001C
:1004D0001400002001490860704700001404014026
:1004E000014600200022074B1B6803EA0102054B6E
:1004F00014331B680B4013B10AB1012000E0002047
:100500007047000000040140002123498279002A3D
:100510003AD00A46126803689A430B461A600A1DCD
:10052000126803689A430B1D1A60027911440A6825
:1005300003681A430A60184A0832126803689A432B
:10054000154B08331A601A1D126803689A43124B40
:100550000C331A604279102A0ED11A1F12680368F0
:100560001A430D4B08331A601A1D126803681A43A8
:10057000094B0C331A600DE00749427911440A68AF
:1005800003681A430A6005E0027911440A680368A7
:100590009A430A6070470000000401400EB5012133
:1005A000052000F029FA00F026F90120ADF8080036
:1005B00004208DF80B0002A9194800F055F800211D
:1005C000084600F031F80120009000208DF804006A
:1005D00008208DF8050001208DF806006846FFF719
:1005E00093FF4FF40050ADF8080004208DF80B0085
:1005F00002A90C4800F038F80D21022000F014F890
:100600004FF40050009000208DF804000C208DF86D
:10061000050001208DF806006846FFF775FF0EBD46
:10062000000801400010014030B500228B071C0F6C
:100630000F2303FA04F20B4B8C1053F8243093432E
:10064000084C8D1044F8253023468C1053F8243084
:100650008C07240F00FA04F42343024C8D1044F855
:10066000253030BD080001402DE9F041024600254B
:100670000026002000230024002791F803C00CF07E
:100680000F0591F803C00CF0100CBCF1000F03D063
:1006900091F802C04CEA050591F800C0BCF1000FCA
:1006A00031D0146800202BE04FF0010C0CFA00F35D
:1006B000B1F800C00CEA03069E4220D183004FF03F
:1006C0000F0C0CFA03F7BC4305FA03FC4CEA0404D4
:1006D00091F803C0BCF1280F06D14FF0010C0CFAC1
:1006E00000FCC2F814C00AE091F803C0BCF1480F46
:1006F00005D14FF0010C0CFA00FCC2F810C0401CF0
:100700000828D1D31460B1F800C0BCF1FF0F34DD6C
:10071000546800202EE000F1080C4FF0010808FAA0
:100720000CF3B1F800C00CEA03069E4221D183000D
:100730004FF00F0C0CFA03F7BC4305FA03FC4CEA2C
:10074000040491F803C0BCF1280F05D100F1080C96
:1007500008FA0CF8C2F8148091F803C0BCF1480FF5
:1007600007D100F1080C4FF0010808FA0CF8C2F8A4
:100770001080401C0828CED35460BDE8F08100BF33
:10078000FEE770B505460C4600F098FC782000F0B6
:100790006BFC00F0BBFC00B110E0284600F064FCEC
:1007A00000F0B4FC00B109E0204600F05DFC00F070
:1007B000ADFC00B102E000F099FC00BF00F096FC37
:1007C00070BD000008B50121082000F015F94FF4B4
:1007D0008050ADF8000010208DF8030003208DF844
:1007E000020069460148FFF73FFF08BD000C0140C9
:1007F00000BFFEE7704708B54FF4A06000F04EF868
:1008000006208DF8000001208DF8010002208DF8EF
:10081000020001208DF80300684600F007F8282048
:100820008DF80000684600F001F808BD70B50021A1
:1008300000230F22C47804B3154C246804F4E06448
:10084000C4F5E064210AC1F10403CA40447804FA03
:1008500003F184781440214309010E4C0678A15518
:10086000047804F01F050124AC4005786D11AD003B
:1008700005F1E025C5F8004109E0047804F01F0502
:100880000124AC40044D0678761145F8264070BD31
:100890000CED00E000E400E080E100E002490143EB
:1008A000024A1160704700000000FA050CED00E0FC
:1008B00070B500240CE0002506E00020074901EB9C
:1008C000C4114855681CC5B2802DF6DB601CC4B24B
:1008D000082CF0DB00F0B0FA70BD0000180000201A
:1008E00010B500F0A7FB4FF47A70FFF7A7FDAE201C
:1008F00000F094FA202000F091FA102000F08EFA17
:10090000B02000F08BFAC82000F088FA002000F038
:1009100085FA102000F082FA402000F07FFA812052
:1009200000F07CFAFF2000F079FAA12000F076FABE
:10093000A62000F073FAA82000F070FA3F2000F023
:100940006DFAA42000F06AFAD32000F067FA0020C4
:1009500000F064FAD52000F061FAF02000F05EFAB1
:10096000D92000F05BFA222000F058FADA2000F0DB
:1009700055FA122000F052FADB2000F04FFA202046
:1009800000F04CFA8D2000F049FA142000F046FAED
:10099000AF2000F043FA10BD70B505460C4605F1D6
:1009A000B001C8B200F03AFA04F00F0000F036FAD5
:1009B000102141EA141000F031FA70BD70470000B8
:1009C00001460020034A506820F44040084350602C
:1009D000704700000010024029B1064A52690243E4
:1009E000044B5A6104E0034A52698243014B5A6145
:1009F000704700000010024029B1064A9269024384
:100A0000044B9A6104E0034A92698243014B9A6164
:100A1000704700000010024030B500210022002481
:100A200000232D4D6D6805F00C0121B1042905D07E
:100A3000082923D105E0294D056022E0274D0560F6
:100A40001FE0254D6D6805F47012234D6D6805F4A7
:100A50008034022505EB92421CB9214D55430560B7
:100A60000BE01D4D6D6805F400351DB11C4D55435F
:100A7000056002E0194D5543056002E0174D056021
:100A800000BF00BF144D6D6805F0F0010909154D58
:100A90006B5C0568DD4045600F4D6D6805F4E061F5
:100AA000090A104D6B5C4568DD4085600A4D6D6834
:100AB00005F46051C90A0B4D6B5C4568DD40C560AB
:100AC000054D6D6805F44041890B074D6B5CC568A9
:100AD000B5FBF3F5056130BD0010024000127A004D
:100AE00000093D000000002010000020704710B5F4
:100AF00000F002F810BD00000CB50020019000903D
:100B00003348006840F480303149086000BF304805
:100B1000006800F4003000900198401C019000989B
:100B200018B90198B0F5A06FF1D12948006800F418
:100B3000003010B10120009001E0002000900098EA
:100B4000012843D12348006840F010002149086083
:100B50000846006820F0030008600846006840F07E
:100B6000020008601A484068194948600846406811
:100B700048600846406840F4806048600846406825
:100B800020F47C1048600846406840F4E810486053
:100B90000846006840F08070086000BF0C4800689C
:100BA00000F000700028F9D00948406820F00300E8
:100BB000074948600846406840F00200486000BFAE
:100BC0000348406800F00C000828F9D10CBD000073
:100BD000001002400020024030B50146B1F1807F94
:100BE00001D3012030BD21F07F40401E4FF0E022B4
:100BF000506150170F22002807DA13071D0E094B0A
:100C000000F00F04241F1D5503E013071C0E064BB4
:100C10001C5400BF00204FF0E022906107201061BB
:100C20000020DFE718ED00E000E400E0704700007E
:100C300010B51348006840F00100114908600846EB
:100C40004068104908400E494860084600680E494F
:100C500008400B4908600846006820F480200860BE
:100C60000846406820F4FE0048604FF41F0088608A
:100C7000FFF73DFF4FF000600449086010BD000021
:100C8000001002400000FFF8FFFFF6FE08ED00E054
:100C900021B1828942F40052828104E082894DF6BA
:100CA000FF731A40828170472DE9F04786B00546F0
:100CB0000E460024A24600BFA1460027B08900B11D
:100CC00000BF2F462C8A4CF6FF700440F088044386
:100CD0002C82AC894EF6F3100440B0883189084369
:100CE000718908430443AC81AC8A4FF6FF4004404D
:100CF000B0890443AC8201A8FFF78EFE1F488742EB
:100D000002D1DDF810A001E0DDF80CA0A88900F404
:100D1000004040B10AEBCA0000EB0A1031684900FC
:100D2000B0FBF1F807E00AEBCA0000EB0A103168EB
:100D30008900B0FBF1F86420B8FBF0F00401200951
:100D4000642101FB1089A88900F4004040B13220E1
:100D500000EBC900B0FBF1F000F00700044308E02D
:100D6000322000EB09106421B0FBF1F000F00F001D
:100D700004432C8106B0BDE8F08700000038014034
:100D80001FB501218803FFF737FE4FF4E1300090D3
:100D90000020ADF80400ADF80600ADF808000C2006
:100DA000ADF80A000020ADF80C0069460348FFF7D3
:100DB0007BFF01210148FFF76BFF1FBD0038014099
:100DC00008B501210420FFF717FE01210420FFF7D9
:100DD00013FE4FF48060ADF8000004208DF803008E
:100DE00069460948FFF740FC4FF40070ADF8000079
:100DF00018208DF8030003208DF802006946024890
:100E0000FFF732FC08BD00000008014010B5FFF7F5
:100E1000D7FFFFF7B5FF10BD00BFFEE710B50446D2
:100E200021460020FFF7ADFC10BD10B50446214659
:100E30004020FFF7A6FC10BD70B5002411E0002192
:100E40002046FFF7A9FD002507E0074901EBC41183
:100E5000485DFFF7EAFF681CC5B2802DF5DB601C1A
:100E6000C4B2082CEBDB70BD1800002002E008C8FB
:100E7000121F08C1002AFAD170477047002001E014
:100E800001C1121F002AFBD170472DE9F74F0E4612
:100E900017463046F11706EB5171C910C1F1070131
:100EA00001F0FF083846F91707EB5171C910C1F17D
:100EB000070101F0FF093046F11706EB5171C91027
:100EC000A6EBC101C1F10701CCB23846F91707EB17
:100ED0005171C910A7EBC101C1F10701CDB2A8EB57
:100EE000090000282DDD40460099FFF755FD01213E
:100EF000A140491E0122A2401143C8B2FFF795FF4D
:100F00000AE0A8F1010000F0FF0840460099FFF751
:100F100043FDFF20FFF789FF09F101008045F0D173
:100F200048460099FFF738FD0121A940C1F1800131
:100F300041F080020121A9400A43D0B2FFF775FFBA
:100F400059E0B8EB090029D140460099FFF724FD8C
:100F5000601B05D10121A140C8B2FFF766FF4AE03E
:100F6000601B00280BDD0121A1400122AA40891A43
:100F70000122A2401143C8B2FFF757FF3BE0281BF4
:100F8000002838DD0122AA400121A140521A012186
:100F9000A9400A43D0B2FFF748FF2CE04846009929
:100FA000FFF7FAFC0121A940491E0122AA40114382
:100FB000C8B2FFF73AFF0AE0A9F1010000F0FF090B
:100FC00048460099FFF7E8FCFF20FFF72EFF08F1E5
:100FD00001008145F0D140460099FFF7DDFC012179
:100FE000A140C1F1800141F080010122A2401143E2
:100FF000C8B2FFF71AFF4FF0010A16E04FF0000BDE
:101000000CE000985044C1B25846FFF7C5FC0020E0
:10101000FFF70BFF0BF1010000F0FF0BBBF1080F16
:10102000EFDB0AF1010000F0FF0ABAF1040FE5DB83
:10103000BDE8FE8F08B501210820FFF7DDFCC020C8
:10104000ADF8000003208DF8020014208DF8030095
:1010500069460348FFF708FB00F048F808BD0000A8
:10106000000C01407047000070B50446002520E0E8
:1010700004F0800018B180200F49086003E0802050
:101080000D49091D0860FFF7EDFF40200A4908607F
:10109000FFF7E8FF40200849091D0860072D02D12D
:1010A0008020091F08606006040EFFF7DBFF681C44
:1010B000C5B2082DDCDB70BD100C014010B58020DE
:1010C0000949086040200860FFF7CCFF80200649EE
:1010D000091D0860FFF7C6FF40200349091D08608D
:1010E000FFF7C0FF10BD0000100C014010B58020BC
:1010F000054908604020091F0860FFF7B3FF802002
:101100000149091F086010BD140C014010B5802072
:101110000C490860FFF7A6FF40200A490860FFF766
:10112000A1FF08480838006800F0800008B10124D9
:1011300000E0002440200349091D0860FFF792FFEA
:10114000204610BD100C0140ADF5007DFFF73AFBC5
:10115000FFF724FAFFF75AFEFFF7C2FBFFF738F953
:10116000FFF7A6FB6420FFF769F948E000240FE0D1
:10117000234A32F81400C21700EB92629211214602
:1011800004EBD1735B1040AD25F81320A01C84B292
:10119000FF2CEDDD01240EE0194A32F81400C217CD
:1011A00000EB92629211214604EBD1735B102DF893
:1011B0001320A01C84B2FF2CEEDD1248007880B111
:1011C00001240BE040AB13F81420631E40AD15F86A
:1011D0001310E0B2FFF759FE601C84B2802C0EDAC7
:1011E000F0E7012409E01DF81420631E1DF8131018
:1011F000E0B2FFF74AFE601C84B2802CF3DBB5E757
:10120000180400201400002028120008000000200C
:10121000180000006C0E00084012000818000020A2
:10122000000A00007C0E0008000000000102030418
:101230000102030406070809020406080100000071
:04000005080000ED02
:00000001FF
