:020000040800F2
:10000000180C002045010008AD0900083709000858
:10001000A9090008B9040008451100080000000003
:10002000000000000000000000000000A50C000817
:10003000F105000800000000750B0008E50D000840
:100040005F0100085F0100085F0100085F01000810
:100050005F0100085F010008310600085F01000829
:100060005F0100085F0100085F010008BD0400088F
:100070005F0100085F0100085F0100085F010008E0
:100080005F0100085F0100085F0100085F010008D0
:100090005F0100085F0100085F0100085F010008C0
:1000A0005F0100085F0100085F0100085F010008B0
:1000B0005F0100085F0100085F0100085F010008A0
:1000C0005F0100085F0100085F0100085F01000890
:1000D0005F0100085F0100085F0100085F01000880
:1000E0005D0600085F0100085F0100085F0100086D
:1000F0005F0100085F0100085F0100085F01000860
:100100005F0100085F0100085F0100085F0100084F
:100110005F0100085F0100085F0100085F0100083F
:100120005F0100085F0100085F0100085F0100082F
:10013000DFF80CD000F018F8004800473D14000824
:10014000180C00200648804706480047FEE7FEE7F7
:10015000FEE7FEE7FEE7FEE7FEE7FEE7FEE7FEE777
:10016000E90D000831010008064C074D06E0E06883
:1001700040F0010394E8070098471034AC42F6D3EE
:10018000FFF7DAFF701400089014000821B18268AC
:1001900042F00102826003E0826822F00102826084
:1001A000704721B1826842F48072826003E0826805
:1001B00022F480728260704721B1826842F480121A
:1001C000826003E0826822F48012826070470146F8
:1001D00000208A6802F004020AB1012000E0002039
:1001E0007047000030B502460020002350680F4CD5
:1001F00020400D790C6844EA052420435060906843
:100200000B4C2040D1E902542C434D7944EA45047B
:1002100020439060D06A20F470000C7C641EE4B22D
:10022000234340EA0350D06230BD0000FFFEF0FFE0
:10023000FDF7F1FFF0B504460D4600200021092D21
:1002400011DDE068A5F10A0606EB4607072606FA67
:1002500007F18843A5F10A0606EB460603FA06F104
:100260000843E0600CE0206905EB4507072606FA25
:1002700007F1884305EB450603FA06F108432061C0
:10028000072A0FDA606B561E06EB86071F2606FA52
:1002900007F18843561E06EB860605FA06F1084369
:1002A000606322E00D2A0FDA206BD61F06EB86076B
:1002B0001F2606FA07F18843D61F06EB860605FAC5
:1002C00006F10843206310E0E06AA2F10D0606EB98
:1002D00086071F2606FA07F18843A2F10D0606EBF2
:1002E000860605FA06F10843E062F0BD816841F038
:1002F000040181607047000000B585B0012148020B
:1003000000F056FC002000908DF80500039002904C
:1003100002208DF8100000208DF804006946124874
:10032000FFF760FF4FF4404000F026FC0723012256
:100330000B210D48FFF77EFF01210B48FFF726FF39
:100340000948FFF7D3FF00BF0748FFF740FF002829
:10035000FAD001210448FFF724FF01210248FFF7EA
:100360002BFF05B000BD00000024014000B58BB09C
:100370000121084600F00CFC0F4800900F48019046
:10038000002002908020039000200490802005909F
:1003900040000690800007902020089000020990FD
:1003A00000200A906946064800F0E3F8012104485D
:1003B00000F0CAF80BB000BD4C2401401805002025
:1003C0000800024008B50121102000F0F1FB0121D6
:1003D000102000F0EDFB0220ADF8000000208DF8A9
:1003E00003006946054800F01BFA0420ADF8000040
:1003F0006946024800F014FA08BD000000100140F0
:1004000010B5FFF7DFFF00F0D3F8FFF7AFFFFFF7FE
:1004100073FF10BD00B587B00121C80200F0C8FB12
:100420000220ADF810000020ADF8120040F2E730D5
:10043000ADF814000020ADF816008DF8180004A9DE
:100440000E4800F069FD6020ADF800000120ADF815
:1004500002006420ADF806000020ADF808006946EF
:10046000064800F00DFD0121044800F0F9FC0021D0
:10047000024800F0E9FC07B000BD0000002C01407C
:1004800008B50121042000F093FB18208DF803002B
:100490004FF48070ADF8000003208DF8020069462B
:1004A000014800F0BDF908BD0008014010B5FFF794
:1004B000E7FFFFF7AFFF10BD00BFFEE770B50024F8
:1004C0000021174800F040F8022000F02FF800BF8C
:1004D0000BE0144931F81400C11700EB9161C1F32E
:1004E0008711114A1155601C84B2802CF1DB00F099
:1004F000BBFA012409E00C4B1A5D631E0A4DE95C4E
:10050000E0B200F058FE601C84B2802CF3DB4FF4A4
:100510007A7000F06FF80121014800F015F870BD05
:1005200008000240180500201800002000F080514B
:1005300011B10349086001E00249486070470000BA
:10054000040402400000024021B1026842F00102AE
:10055000026004E002684FF6FE731A4002607047C2
:100560001AB103680B43036002E003688B43036026
:10057000704710B50022026847F6F0739A430C6A80
:100580008B6823430C6923434C6923438C692343C1
:10059000CC6923434C6A23438C6A23431A43026089
:1005A000CB6843600B6883604B68C36010BD00007C
:1005B00008B50121084600F0EBFA4FF4A06000F006
:1005C00049FA0B208DF8000001208DF80100002071
:1005D0008DF8020001208DF80300684600F002FA51
:1005E000012202210148FFF7BBFF08BD08000240BD
:1005F0007047000070B504460C4800F0C9FB0025A8
:1006000008E000BF4FF0E020006900F480300028CF
:10061000F8D06D1CA542F4D34FF0E020006920F023
:1006200001004FF0E021086170BD00004019010099
:1006300010B5012000F030F860B10748007818B913
:1006400001200549087002E00020034908700120DC
:1006500000F01CF810BD00001400002010B54FF48D
:10066000005000F019F868B10748007818B9012067
:100670000549087002E00020034908704FF400505B
:1006800000F004F810BD00001400002001490860CB
:100690007047000014040140014600200022074B6F
:1006A0001B6803EA0102054B14331B680B4013B1AE
:1006B0000AB1012000E00020704700000004014062
:1006C000002123498279002A3AD00A461268036839
:1006D0009A430B461A600A1D126803689A430B1D61
:1006E0001A60027911440A6803681A430A60184ABA
:1006F0000832126803689A43154B08331A601A1DB2
:10070000126803689A43124B0C331A604279102A1C
:100710000ED11A1F126803681A430D4B08331A6072
:100720001A1D126803681A43094B0C331A600DE056
:100730000749427911440A6803681A430A6005E0D0
:10074000027911440A6803689A430A6070470000FE
:10075000000401400EB50121052000F029FA00F047
:1007600026F90120ADF8080004208DF80B0002A93D
:10077000194800F055F80021084600F031F8012032
:10078000009000208DF8040008208DF8050001205D
:100790008DF806006846FFF793FF4FF40050ADF860
:1007A000080004208DF80B0002A90C4800F038F86E
:1007B0000D21022000F014F84FF4005000900020AA
:1007C0008DF804000C208DF8050001208DF806003E
:1007D0006846FFF775FF0EBD00080140001001409C
:1007E00030B500228B071C0F0F2303FA04F20B4BCA
:1007F0008C1053F824309343084C8D1044F8253066
:1008000023468C1053F824308C07240F00FA04F48C
:100810002343024C8D1044F8253030BD08000140C0
:100820002DE9F04102460025002600200023002487
:10083000002791F803C00CF00F0591F803C00CF0ED
:10084000100CBCF1000F03D091F802C04CEA050572
:1008500091F800C0BCF1000F31D0146800202BE0EB
:100860004FF0010C0CFA00F3B1F800C00CEA0306DB
:100870009E4220D183004FF00F0C0CFA03F7BC43CB
:1008800005FA03FC4CEA040491F803C0BCF1280FFC
:1008900006D14FF0010C0CFA00FCC2F814C00AE0BB
:1008A00091F803C0BCF1480F05D14FF0010C0CFAD0
:1008B00000FCC2F810C0401C0828D1D31460B1F865
:1008C00000C0BCF1FF0F34DD546800202EE000F1C1
:1008D000080C4FF0010808FA0CF3B1F800C00CEA5C
:1008E00003069E4221D183004FF00F0C0CFA03F750
:1008F000BC4305FA03FC4CEA040491F803C0BCF1C4
:10090000280F05D100F1080C08FA0CF8C2F8148081
:1009100091F803C0BCF1480F07D100F1080C4FF06B
:10092000010808FA0CF8C2F81080401C0828CED341
:100930005460BDE8F08100BFFEE770B505460C4687
:1009400000F036FD782000F009FD00F059FD00B1FF
:1009500010E0284600F002FD00F052FD00B109E071
:10096000204600F0FBFC00F04BFD00B102E000F07F
:1009700037FD00BF00F034FD70BD000008B5012157
:10098000082000F015F94FF48050ADF80000102059
:100990008DF8030003208DF8020069460148FFF737
:1009A0003FFF08BD000C014000BFFEE7704708B5DF
:1009B0004FF4A06000F04EF806208DF800000020F3
:1009C0008DF8010002208DF8020001208DF803004F
:1009D000684600F007F828208DF80000684600F00F
:1009E00001F808BD70B5002100230F22C47804B3BC
:1009F000154C246804F4E064C4F5E064210AC1F1F4
:100A00000403CA40447804FA03F184781440214373
:100A100009010E4C0678A155047804F01F05012445
:100A2000AC4005786D11AD0005F1E025C5F8004139
:100A300009E0047804F01F050124AC40044D067859
:100A4000761145F8264070BD0CED00E000E400E0B2
:100A500080E100E002490143024A11607047000052
:100A60000000FA050CED00E070B500240CE0002554
:100A700006E00020074901EBC4114855681CC5B2C7
:100A8000802DF6DB601CC4B2082CF0DB00F06AFBA2
:100A900070BD00001801002010B500F045FC4FF4B7
:100AA0007A70FFF7A7FDAE2000F04EFB202000F08B
:100AB0004BFB102000F048FBB02000F045FBC820A5
:100AC00000F042FB002000F03FFB102000F03CFB58
:100AD000402000F039FB812000F036FBFF2000F0C1
:100AE00033FBA12000F030FBA62000F02DFBA82056
:100AF00000F02AFB3F2000F027FBA42000F024FB9D
:100B0000D32000F021FB002000F01EFBD52000F0D8
:100B10001BFBF02000F018FBD92000F015FB222071
:100B200000F012FBDA2000F00FFB122000F00CFBAB
:100B3000DB2000F009FB202000F006FB8D2000F0F8
:100B400003FB142000F000FBAF2000F0FDFA10BD05
:100B500070B505460C4605F1B001C8B200F0F4FAD4
:100B600004F00F0000F0F0FA102141EA141000F038
:100B7000EBFA70BD7047000001460020034A506840
:100B800020F44040084350607047000000100240CD
:100B900029B1064A52690243044B5A6104E0034AF0
:100BA00052698243014B5A617047000000100240B5
:100BB00029B1064A92690243044B9A6104E0034A50
:100BC00092698243014B9A61704700000010024015
:100BD00030B500210022002400232D4D6D6805F062
:100BE0000C0121B1042905D0082923D105E0294DA4
:100BF000056022E0274D05601FE0254D6D6805F476
:100C00007012234D6D6805F48034022505EB924285
:100C10001CB9214D554305600BE01D4D6D6805F471
:100C200000351DB11C4D5543056002E0194D55437B
:100C3000056002E0174D056000BF00BF144D6D68F0
:100C400005F0F0010909154D6B5C0568DD40456054
:100C50000F4D6D6805F4E061090A104D6B5C456845
:100C6000DD4085600A4D6D6805F46051C90A0B4D81
:100C70006B5C4568DD40C560054D6D6805F440411D
:100C8000890B074D6B5CC568B5FBF3F5056130BD9D
:100C90000010024000127A0000093D000000002010
:100CA00010000020704710B500F002F810BD0000E1
:100CB0000CB50020019000903348006840F480306B
:100CC0003149086000BF3048006800F400300090EF
:100CD0000198401C0190009818B90198B0F5A06FD8
:100CE000F1D12948006800F4003010B101200090D3
:100CF00001E0002000900098012843D123480068BB
:100D000040F01000214908600846006820F0030008
:100D100008600846006840F0020008601A48406811
:100D2000194948600846406848600846406840F4F1
:100D3000806048600846406820F47C10486008469F
:100D4000406840F4E81048600846006840F0807051
:100D5000086000BF0C48006800F000700028F9D05F
:100D60000948406820F00300074948600846406889
:100D700040F00200486000BF0348406800F00C00EB
:100D80000828F9D10CBD00000010024000200240EC
:100D900030B50146B1F1807F01D3012030BD21F093
:100DA0007F40401E4FF0E022506150170F22002874
:100DB00007DA13071D0E094B00F00F04241F1D5501
:100DC00003E013071C0E064B1C5400BF00204FF01D
:100DD000E0229061072010610020DFE718ED00E0BD
:100DE00000E400E07047000010B51348006840F0D0
:100DF00001001149086008464068104908400E4942
:100E00004860084600680E4908400B4908600846DB
:100E1000006820F4802008600846406820F4FE0046
:100E200048604FF41F008860FFF73DFF4FF00060FF
:100E30000449086010BD0000001002400000FFF8E7
:100E4000FFFFF6FE08ED00E021B1028842F001024A
:100E5000028004E002884FF6FE731A400280704759
:100E600031B1B0F8442042F40042A0F8442005E03B
:100E7000B0F84420C2F30E02A0F8442070470000EE
:100E800070B5002400220023058C4FF6FE76354015
:100E90000584028C8388048B4FF68F752C40B51E19
:100EA0002C400D882C43751E2A400D892A434D88FD
:100EB0002A43144DA8420BD0134DA84208D0134D1D
:100EC000A84205D0124DA84202D0124DA84213D11B
:100ED0004FF6F7752A404D892A434FF6FB752A4095
:100EE0008D882A434FF6FF652B404FF6FF552B4068
:100EF0008D892B43CD892B4383800483CD888586C0
:100F0000028470BD002C01400034014000400140CB
:100F10000044014000480140002202881D4B9842D5
:100F20000ED01D4B98420BD0B0F1804F08D01B4B18
:100F3000984205D01A4B984202D01A4B984204D1DD
:100F40004FF68F731A404B881A43174B984207D0BD
:100F5000164B984204D04FF6FF431A40CB881A43F1
:100F600002808B8883850B8803850A4B98420BD0BF
:100F7000094B984208D00E4B984205D00D4B984231
:100F800002D00D4B984201D10B7A03860123838254
:100F900070470000002C0140003401400004004074
:100FA00000080040000C0040001000400014004009
:100FB00000400140004401400048014021B18289C5
:100FC00042F40052828104E082894DF6FF731A4098
:100FD000828170472DE9F04786B005460E46002411
:100FE000A24600BFA1460027B08900B100BF2F462E
:100FF0002C8A4CF6FF700440F08804432C82AC89A4
:101000004EF6F3100440B0883189084371890843D3
:101010000443AC81AC8A4FF6FF400440B0890443DE
:10102000AC8201A8FFF7D4FD1F48874202D1DDF84A
:1010300010A001E0DDF80CA0A88900F4004040B148
:101040000AEBCA0000EB0A1031684900B0FBF1F866
:1010500007E00AEBCA0000EB0A1031688900B0FB18
:10106000F1F86420B8FBF0F004012009642101FBD1
:101070001089A88900F4004040B1322000EBC9007B
:10108000B0FBF1F000F00700044308E0322000EB71
:1010900009106421B0FBF1F000F00F0004432C8133
:1010A00006B0BDE8F0870000003801401FB50121FF
:1010B0008803FFF77DFD4FF4E13000900020ADF88C
:1010C0000400ADF80600ADF808000C20ADF80A00E9
:1010D0000020ADF80C0069460348FFF77BFF0121B3
:1010E0000148FFF76BFF1FBD0038014008B5012123
:1010F0000420FFF75DFD01210420FFF759FD4FF4A7
:101100008060ADF8000004208DF8030069460948AE
:10111000FFF786FB4FF40070ADF8000018208DF843
:10112000030003208DF8020069460248FFF778FBB0
:1011300008BD00000008014010B5FFF7D7FFFFF71A
:10114000B5FF10BD00BFFEE710B5044621460020E4
:10115000FFF7F3FB10BD10B5044621464020FFF712
:10116000ECFB10BD70B5002411E000212046FFF714
:10117000EFFC002507E0074901EBC411485DFFF7CC
:10118000EAFF681CC5B2802DF5DB601CC4B2082CD8
:10119000EBDB70BD1801002002E008C8121F08C177
:1011A000002AFAD170477047002001E001C1121FE8
:1011B000002AFBD170472DE9F04782460E461746BC
:1011C0003046F11706EB5171C910C1F1070101F06A
:1011D000FF083846F91707EB5171C910C1F1070133
:1011E00001F0FF093046F11706EB5171C910A6EB6B
:1011F000C101C1F10701CCB23846F91707EB5171B3
:10120000C910A7EBC101C1F10701CDB2A8EB0900DC
:1012100000282DDD51464046FFF79AFC0121A140F0
:10122000491E0122A2401143C8B2FFF794FF0AE011
:10123000A8F1010000F0FF0851464046FFF788FC86
:10124000FF20FFF788FF09F101008045F0D15146EA
:101250004846FFF77DFC0121A940C1F1800141F022
:1012600080010122AA401143C8B2FFF774FF59E080
:10127000B8EB090029D151464046FFF769FC601BD5
:1012800005D10121A140C8B2FFF765FF4AE0601B0C
:1012900000280BDD0121A1400122AA40891A012268
:1012A000A2401143C8B2FFF756FF3BE0281B0028BD
:1012B00038DD0121A9400122A240891A0122AA4059
:1012C0001143C8B2FFF747FF2CE051464846FFF7ED
:1012D0003FFC0121A940491E0122AA401143C8B286
:1012E000FFF739FF0AE0A9F1010000F0FF095146BC
:1012F0004846FFF72DFCFF20FFF72DFF08F1010006
:101300008145F0D151464046FFF722FC0121A14022
:10131000C1F1800141F080010122A2401143C8B215
:10132000FFF719FFBDE8F08708B501210820FFF796
:101330003FFCC020ADF8000003208DF8020014200F
:101340008DF8030069460348FFF76AFA00F048F891
:1013500008BD0000000C01407047000070B5044655
:10136000002520E004F0800018B180200F490860BB
:1013700003E080200D49091D0860FFF7EDFF4020C4
:101380000A490860FFF7E8FF40200849091D086086
:10139000072D02D18020091F08606006040EFFF7A8
:1013A000DBFF681CC5B2082DDCDB70BD100C0140F2
:1013B00010B580200949086040200860FFF7CCFF85
:1013C00080200649091D0860FFF7C6FF4020034939
:1013D000091D0860FFF7C0FF10BD0000100C0140A0
:1013E00010B58020054908604020091F0860FFF7FC
:1013F000B3FF80200149091F086010BD140C014093
:1014000010B580200C490860FFF7A6FF40200A496C
:101410000860FFF7A1FF08480838006800F0800066
:1014200008B1012400E0002440200349091D0860A0
:10143000FFF792FF204610BD100C0140FFF79EFA07
:10144000FFF788F9FFF778FEFFF730F8FFF724FB86
:10145000FEF7D6FFFFF708FB6420FFF7CBF801216A
:101460000248FFF7F1FC00BFFEE70000002C01403E
:1014700090140008000000201800000098110008D7
:10148000A814000818000020000C0000A811000893
:10149000000000000102030401020304060708091A
:0814A00002040608010000002F
:0400000508000131BD
:00000001FF
